:020000040800F2
:1000000068040020D1000008B10F0008890D000825
:1000100000000000000000000000000000000000E0
:10002000000000000000000000000000B50F000804
:100030000000000000000000B30F0008B70F000828
:10004000E3000008E3000008E3000008E300000804
:10005000E3000008E3000008E30000086101000875
:10006000E3000008E3000008E3000008E3000008E4
:10007000E3000008E3000008E3000008E3000008D4
:10008000E3000008E3000008E3000008E3000008C4
:10009000E3000008E3000008E3000008E3000008B4
:1000A000E3000008E3000008E3000008E3000008A4
:1000B000E3000008E3000008E30000080348854669
:1000C00000F03CF8004800473D120008680400209A
:1000D0000448804704480047FEE7FEE7FEE7FEE7E6
:1000E000FEE7FEE725100008BD00000830B50B460E
:1000F000014600202022012409E00D46D5409D4202
:1001000005D31D469540491B254695404019154687
:10011000521E002DF1DC30BDD2B201E00270401C55
:10012000491EFBD270470022F6E710B513460A4677
:1001300004461946FFF7F0FF204610BD064C012586
:10014000064E05E0E36807CC2B430C3C984710347F
:10015000B442F7D3FFF7B6FFD0120008F012000840
:1001600010B50120400300F01FF810BD72B67D24C9
:10017000E40001F027F8204600F002F8F9E700005B
:1001800070B5044600F0E8F80546601C02D004484B
:100190000078241800F0E0F8401BA042FAD370BDAC
:1001A000000000207047000070B5084D0446E86864
:1001B000204203D0EC60204600F00AF82869204273
:1001C00003D02C612046FFF7EDFF70BD0018024000
:1001D00070470000FCB5002301259AE022462C461A
:1001E0009C4022406FD04E68012E05D0022E03D0D5
:1001F000112E01D0122E16D186680327B4465E0058
:10020000B646B7406646BE43B446CF687646B7406A
:100210006646374387604668A6430C79E406E40FD8
:100220009C4034434460C6685F000324BC40A4463D
:10023000A6438C68BC403443C4604C68022C01D097
:10024000122C14D1DC08A40024180194266A5C073F
:10025000B646E60E0F24B44000967646A643B64650
:100260000C69009EB44076462643019C26620468D1
:100270006646B4430E79B607B60FBE402643066005
:100280004C68E40044D59E08254CB6003419A446B9
:10029000246E9E07F60E0F27B740BC4305273F0785
:1002A000B84201D1002710E01E4FB84201D101270A
:1002B0000BE01D4FB84201D1022706E01B4FB842A8
:1002C00002D1032701E023E00527B7402743644616
:1002D0002766134E803634684F689443FF0300D579
:1002E0001443346074684F689443BF0300D51443CB
:1002F00074600B4C26684F689643FF0200D5164386
:10030000266066684F689643BF0200D51643666054
:100310005B1C0A681446DA4000D05FE7FCBD0000B1
:10032000001802400004005000080050000C00506B
:100330000069084000D001207047426913460B4015
:100340001B0491430B4383617047002A01D08161F4
:100350007047816270470000014880687047000064
:100360000000002070B5040006D0254640356878AE
:100370000026002802D005E0012070BD2E70204626
:1003800000F05AF924206870206801684908490083
:1003900001600F21606809068843216808612168AF
:1003A0008A680120C00382438A60E1680129A1684C
:1003B00008D021229202114322689160E16802294B
:1003C00002D005E00143F7E701212268C90251602C
:1003D00021684A680F4B1A434A602168CA68824301
:1003E000CA60616920690843A1690902084321685C
:1003F000C860216AE06908432168086020680168D4
:100400000122114301606664202068702663AE708B
:10041000002070BD00800002FFB50546044640354F
:10042000687881B0202878D12878012875D00120FB
:100430002870FFF791FF0746012200901923D1038E
:10044000204600F0FFFC00283CD1222068701020DC
:10045000A8700026666403986062049860856663ED
:10046000618D2F48FF2903D9FF22228500903BE0B0
:10047000618D218500903DE02046029900F0CEFC80
:1004800016E000F007FD00281CD12068406A616A70
:100490000870606A401C6062208D401E81B2218518
:1004A000608D401E6085608D002801D000290CD031
:1004B000608D0A9900283A462046E2D100F02AFDD4
:1004C00000281CD0012005B0F0BD0097002280213B
:1004D00020460A9B00F0B6FC0028F3D1608DFF286F
:1004E00005D9FF222285009601231B06C4E7608DF3
:1004F00020850096208D0123C2B25B06BCE72168EF
:100500002020C86121684A68064B1A404A6068701A
:10051000AE702E700020D6E7FFE70220D3E7000080
:100520000024008000E800FEFFB505460446403583
:10053000687881B0202878D12878012875D00120EA
:100540002870FFF709FF0746012200901923D10305
:10055000204600F077FC00283CD121206870102054
:10056000A8700026666403986062049860856663DC
:10057000618D2F48FF2903D9FF22228500903BE09F
:10058000618D218500903DE02046029900F046FCF7
:1005900016E000F0E5FC00281CD1606A21680078B4
:1005A0008862606A401C6062608D401E6085208D9C
:1005B000401E80B22085618D002901D000280CD01A
:1005C000608D0A9900283A462046E2D100F0A2FC4C
:1005D00000281CD0012005B0F0BD0097002280212A
:1005E00020460A9B00F02EFC0028F3D1608DFF28E6
:1005F00005D9FF222285009601231B06C4E7608DE2
:1006000020850096208D0123C2B25B06BCE72168DD
:100610002020C86121684A68064B1A404A60687009
:10062000AE702E700020D6E7FFE70220D3E700006F
:100630000020008000E800FE10B586B004461421BA
:100640006846FFF770FD1249206888421DD1114CA1
:10065000616B022001436163616B01400591C02021
:1006600000901220019001200290002003900620AB
:10067000049069460848FFF7ADFDE16B0120400595
:100680000143E163E16B0140059106B010BD00003C
:1006900000540040001002400004005002488168ED
:1006A00002788918816070470000002010B5084862
:1006B00000240168821511430160204600F00AF809
:1006C000002801D0012401E000F028F8204610BDE8
:1006D0000020024070B50F4E0024317805460029F5
:1006E00015D07D20C000FFF701FD01460A480068D3
:1006F000FFF7FCFC00F030FB002808D1042D06D2E7
:1007000000222946401E00F02FF8756000E0012409
:10071000204670BD000000200C00002008B50B48EA
:1007200001680122114301600068104000900748F1
:100730004038C26B01040A43C263C06B084000909A
:100740000320400200F0FEFA08BD00004010024005
:10075000002805DBC106C90E012088400149086058
:100760007047000000E100E010B500F063FC10BD30
:10077000F8B50F46060043D04D4D28684007400F9E
:10078000B84213D22868C008C00038432860FFF779
:10079000E3FD044605E0FFF7DFFD011B454881420C
:1007A00061D828684007400FB842F4D13068424C05
:1007B00081070DD5400704D5A06807210903084328
:1007C000A060A0680F2109028843B1680843A060B7
:1007D0003078C00732D0706801280AD002280BD0C8
:1007E00000280FD03449403103280ED0C969890749
:1007F00004E02168890301E021688901002906DB02
:100800000120F8BD21684905F8E7096AEFE7A1680A
:10081000C908C9000143A160FFF79EFD009006E0F2
:10082000FFF79AFD0099411A224881421BD8A0681F
:10083000382108407168C9008842F1D12868400712
:10084000400FB84217D91A480168C908C90039438E
:100850000160FFF781FD054607E0FFF77DFD411BC5
:100860001448814201D90320F8BD114800684007AF
:10087000400FB842F1D13078400706D5A068072173
:1008800009038843F1680843A06000F01DF8A168DF
:100890003C2289091140094A515CC906C90EC84069
:1008A0000749086007480068FFF714FFF8BD00001B
:1008B000002002408813000000100240901200083F
:1008C0000C0000200400002010B5204CA068204A35
:1008D0008006400F16D0A0688006410F50100129F5
:1008E0000FD0A1688906490F022912D0A06880069E
:1008F000400F042823D0A0688006400F032821D091
:10090000002010BD206801218004400F8140104666
:1009100012E0E1688B07E1689B0F4906490F491C0B
:10092000032B00D01046FFF7E1FBE1684904490EB4
:100930004843E168490F491CFFF7D8FB10BD01206F
:10094000C00310BD7D20000210BD00000010024059
:100950000024F400F8B504007ED020783827C007C2
:10096000EF4D002846D0A868E96838408907890F0C
:10097000102802D008280BD001E0032908D001205C
:100980006268000482420AD129680143296015E0A7
:10099000286880032ED560680028DDD02AE0052372
:1009A00001211B0489049A422A6802D10A432A6061
:1009B000EAE782432A602868884328606068002844
:1009C0000CD0FFF7C9FC064604E0FFF7C5FC801B0E
:1009D000642873D828688003F7D50BE0FFF7BCFCC8
:1009E000064604E0FFF7B8FC801B6428F1D82868AD
:1009F0008003F7D42078800769D5A868E968384073
:100A00008A070721920FC902102802D0002813D0AC
:100A100001E0022A10D0E068002846D02868884308
:100A20002169084328602868FF21013108432860B4
:100A3000FFF792FC06462CE02A68520502D5E268D0
:100A4000002A89D06A687F231B029A4363691B02CC
:100A50001A436A60002800E08DE00ED128688843C0
:100A6000216908432860286801218004400F8140E3
:100A7000AC48FFF73BFBAC490860AC480068FFF7A7
:100A800029FE002877D122E0FFF766FC801B0228B0
:100A90009FD828684005F7D568687F2109028843F8
:100AA000616909020843686011E02968FF2001308C
:100AB00081432960FFF750FC064605E098E0FFF708
:100AC0004BFC801B022884D828684005F7D4207886
:100AD000974E00072ED5A8688006400F03280AD03D
:100AE000A0690028306A16D0012108433062FFF760
:100AF00033FC07460BE0306A80071BD5A06900284D
:100B00009FD017E0FFF728FCC01B022870D8306A7E
:100B10008007F7D50EE0400840003062FFF71CFC6C
:100B2000074604E0FFF718FCC01B022860D8306AB3
:100B30008007F7D4207840076CD5A8680027800686
:100B4000400F042818D0E86BC00008D4E96B0120DE
:100B500000070143E963E96B0140012700917548F3
:100B60000168C90519D40168821511430160FFF7B6
:100B7000F3FB00900DE083E0F06980074AD5A068A0
:100B800000287DD046E0FFF7E7FB0099401A0228D5
:100B90002ED868480068C005F5D5A168012910D095
:100BA00004200529F16911D049084900F161F16972
:100BB0008143F161A068002816D0FFF7CDFB0090BB
:100BC0000EE0F06901210843F061F3E70143F161B0
:100BD000F7E7FFF7C1FB0099411A574881426FD8E8
:100BE000F0698007F5D50EE0FFF7B6FB009007E04F
:100BF00066E0FFF7B1FB0099411A4F4881425FD888
:100C0000F0698007F5D4002F04D0E86B01210907B3
:100C10008843E863E06900287FD0A9688906490F06
:100C2000022953D001263606022828680DD0B04389
:100C30002860E86880088000E860E8683F4908406C
:100C4000E860FFF789FB04463CE0B0432860FFF70B
:100C500083FB074604E0FFF77FFBC01B02282FD869
:100C600028688001F7D4616A206AA26A0843E16AB1
:100C7000120211430843216B0843616B084300E0F3
:100C800049E0E9682E4A11400843E860286830438B
:100C90002860E868012109070843E860FFF75CFB6A
:100CA000044604E0FFF758FB001B022808D8286818
:100CB0008001F7D531E0FFF74FFB001B022801D977
:100CC0000320F8BD28688001F5D426E00128F8D07B
:100CD000E868226A8107890F91421CD17021626AFB
:100CE0000140914217D17F21A26A090201401202FC
:100CF000914210D11F214904E26A014091420AD178
:100D000007214906226B0140914204D1400F616BDB
:100D10004007884201D00120F8BD0020F8BD000046
:100D2000001002400024F4000C0000200400002009
:100D3000401002400070004088130000FFFFFEEEEC
:100D40008C80C11103490A6803235B029A43024362
:100D50000A60704700000140094910B5401E8842F2
:100D600001D9012010BD074C60610321081F00F06C
:100D700061F90020A06107202061002010BD000063
:100D8000FFFFFF0000E000E0FEE701688A69D24350
:100D9000920701D400228A6200688169C943C907A9
:100DA00003D081690122114381617047F7B5044680
:100DB00000680E468069C043C0062BD42027254614
:100DC000403520688069C043800612D5701CF8D079
:100DD000FFF7C2FA0299401AB04201D8002EF0D1B2
:100DE000606C384360646F700020A8702870012028
:100DF000FEBD21681020C8612068C7612046FFF74A
:100E0000C4FF20684168044A11404160606C0421BD
:100E10000843E7E70020FEBD00E800FEF0B50668E5
:100E2000059C7568064F600D384385438805800D25
:100E3000110408431843204305437560F0BD0000CA
:100E4000FF63FF03F8B51D4617460E46044609E04A
:100E5000681C07D0FFF780FA0699401AA8420BD801
:100E6000002D09D020688169304688430FD00020CA
:100E7000B842EDD00020F8BD616C202001436164D0
:100E8000403460700020A07020700120F8BD012067
:100E9000EEE70000F7B5002720260546044640355A
:100EA00028E02046029A0199FFF780FF002801D030
:100EB0000120FEBD20688069C043800611D42068EF
:100EC0008169C943490702D4218D002917D1C66120
:100ED000206841680E4A1140416067646E70AF70CF
:100EE00013E0FFF739FA0299411A0198814208D8B4
:100EF000002806D020688069C0434007D1D4002074
:100F0000FEBD606C304360646E702F70D0E70000EF
:100F100000E800FE70B516460D4604460FE0324666
:100F200029462046FFF742FF002801D0012070BD6E
:100F3000FFF712FA801BA84208D8002D06D02068BF
:100F40008069C0438006EAD4002070BD616C202017
:100F500001436164403460700020A0702070E5E7B8
:100F600070B516460D46044611E032462946204625
:100F7000FFF71CFF002801D0012070BD681C06D0BF
:100F8000FFF7EAF9801BA84208D8002D06D0206898
:100F90008069C0438007E8D4002070BD616C2020C8
:100FA00001436164403460700020A0702070E3E76A
:100FB000FEE77047704710B5FFF770FB10BD30B506
:100FC00093B038216846FFF7AEF800250224E0010F
:100FD00003900F95009440200E95059004953020C5
:100FE000099046200A9009201095400411950B9015
:100FF0000794A0060C90089400010D906846FFF736
:10100000A9FC002809D107200EA931C102210EA890
:101010001195FFF7ADFB002801D0FFF7A7F813B03B
:1010200030BD000001200249C00688607047000002
:1010300000ED00E08307FF22DB0E9A408907090ECE
:101040009940002808DB830809489B001B18186892
:1010500090430843186070470007000F0838830862
:1010600004489B001B18D86990430843D861704717
:1010700000E400E000ED00E002E008C8121F08C133
:10108000002AFAD170477047002001E001C1121F09
:10109000002AFBD17047000010B501214903044824
:1010A000FFF746F9002801D0002010BD012010BD37
:1010B0000008005000B587B014216846FFF733F8E8
:1010C0000D48426B04210A434263406B084005907F
:1010D000C802009009480190002002906946084823
:1010E000FFF778F8002211460720FFF73DFB0720A5
:1010F000FFF72EFB07B000BD0010024000001110EA
:1011000000080050F0B51A4887B0416B022529430A
:101110004163416B29400591C26B29050A43C263B3
:10112000C06B144F0840059040200090012012260B
:10113000002402900196694603943846FFF74AF866
:101140008020009002946946019603943846FFF788
:1011500041F80A48084901600949021D32C230C2FB
:101160008461C4610462FFF7FDF807B0F0BD0000C0
:101170000010024000040050005400401C000020F9
:101180005B3D300008B5044800900323034A00216A
:101190000348FFF741F908BD1027000010000020A8
:1011A0001C00002008B5044800900623034A0021D3
:1011B0000348FFF7B9F908BD10270000130000200D
:1011C0001C00002010B5052020210007FFF7B5F80E
:1011D00010BD000030B587B014216846FEF7A3FFAC
:1011E0000D48416B012421434163406B052520409C
:1011F0002D070590002220212846FFF7A6F8202081
:101200000090002002900194694603942846FEF75E
:10121000E1FF07B030BD00000010024010B505200E
:10122000002220210007FFF790F810BD10B505201F
:10123000012220210007FFF788F810BDFFF736FADA
:10124000FFF7BDFEFFF736FFFFF7C4FFFFF75AFFBA
:10125000FFF722FF0028FBD03220FEF791FFFFF7B7
:101260001BFF0128FBD0FFF79DFFFFF7DFFFFFF714
:1012700013FF0028FBD03220FEF782FFFFF70CFFA0
:101280000128FBD0FFF77EFFFFF7C8FFFEE7000055
:10129000000000000000000000000000000000004E
:1012A000000000000000000000000000000000003E
:1012B0000100000002000000030000000400000024
:1012C0000600000007000000080000000900000000
:1012D000F0120008000000201C0000007810000838
:1012E0000C1300081C0000204C04000088100008AB
:1012F0000100000004000000000000000024F400D1
:0C130000000000010203040506000000CC
:04000005080000BD32
:00000001FF
