:020000040800F2
:10000000680600208901000891010008930100089A
:100010009501000897010008990100080000000000
:100020000000000000000000000000009B0100082C
:100030009D010008000000009F010008A1010008C8
:10004000A3010008A3010008A3010008A301000800
:10005000A3010008A3010008A3010008A3010008F0
:10006000A3010008A3010008A3010008A3010008E0
:10007000A3010008A3010008A3010008A3010008D0
:10008000A3010008A3010008A3010008A3010008C0
:10009000A3010008A3010008A3010008A3010008B0
:1000A000A3010008A3010008A3010008A3010008A0
:1000B000A3010008A301000800000000A30100083C
:1000C000A30100080000000000000000A3010008D8
:1000D00000000000A3010008A301000800000000C8
:1000E000A3010008A3010008A301000800F002F822
:1000F00000F03AF80AA090E8000C82448344AAF188
:100100000107DA4501D100F02FF8AFF2090EBAE885
:100110000F0013F0010F18BFFB1A43F0010318473B
:10012000900C0000B00C0000103A24BF78C878C1D1
:10013000FAD8520724BF30C830C144BF04680C60ED
:10014000704700000023002400250026103A28BF35
:1001500078C1FBD8520728BF30C148BF0B60704739
:100160001FB51FBD10B510BD00F031F81146FFF7E7
:10017000F7FF00F099FA00F04FF803B4FFF7F2FF31
:1001800003BC00F057F800000948804709480047C1
:10019000FEE7FEE7FEE7FEE7FEE7FEE7FEE7FEE737
:1001A000FEE7FEE704480549054A064B7047000094
:1001B000B9050008ED00000868000020680600206E
:1001C000680200206802002070477047704775463B
:1001D00000F02CF8AE4605006946534620F00700B3
:1001E000854618B020B5FFF7DDFFBDE820404FF091
:1001F00000064FF000074FF000084FF0000B21F011
:100200000701AC46ACE8C009ACE8C009ACE8C009DD
:10021000ACE8C0098D46704710B50446AFF30080C6
:100220002046BDE81040FFF7A8BF00000048704717
:100230000800002001491820ABBEFEE7260002009E
:10024000704721B1826842F00102826003E0826857
:1002500022F00102826070470146C86C80B270478C
:100260000246002013680B400BB1012000E0002083
:100270007047000030B502460020002350680F4C44
:1002800020400D790C6844EA0524204350609068B2
:100290000B4C2040D1E902542C434D7944EA4504EB
:1002A00020439060D06A20F470000C7C641EE4B29D
:1002B000234340EA0350D06230BD0000FFFEF0FF50
:1002C000FDF7F1FFF0B504460D4600200021092D91
:1002D00011DDE068A5F10A0606EB4607072606FAD7
:1002E00007F18843A5F10A0606EB460603FA06F174
:1002F0000843E0600CE0206905EB4507072606FA95
:1003000007F1884305EB450603FA06F1084320612F
:10031000072A0FDA606B561E06EB86071F2606FAC1
:1003200007F18843561E06EB860605FA06F10843D8
:10033000606322E00D2A0FDA206BD61F06EB8607DA
:100340001F2606FA07F18843D61F06EB860605FA34
:1003500006F10843206310E0E06AA2F10D0606EB07
:1003600086071F2606FA07F18843A2F10D0606EB61
:10037000860605FA06F10843E062F0BD21B1826805
:1003800042F4A002826003E0826822F4A00282604C
:1003900070472DE9F0410246002500260020002389
:1003A0000024002791F803C00CF00F0591F803C05A
:1003B0000CF0100CBCF1000F03D091F802C04CEA15
:1003C000050591F800C0BCF1000F31D01468002081
:1003D0002BE04FF0010C0CFA00F3B1F800C00CEA6E
:1003E00003069E4220D183004FF00F0C0CFA03F756
:1003F000BC4305FA03FC4CEA040491F803C0BCF1C9
:10040000280F06D14FF0010C0CFA00FCC2F814C002
:100410000AE091F803C0BCF1480F05D14FF0010C80
:100420000CFA00FCC2F810C0401C0828D1D314609C
:10043000B1F800C0BCF1FF0F34DD546800202EE09D
:1004400000F1080C4FF0010808FA0CF3B1F800C0F5
:100450000CEA03069E4221D183004FF00F0C0CFAE8
:1004600003F7BC4305FA03FC4CEA040491F803C00B
:10047000BCF1280F05D100F1080C08FA0CF8C2F8FD
:10048000148091F803C0BCF1480F07D100F1080CAB
:100490004FF0010808FA0CF8C2F81080401C082838
:1004A000CED35460BDE8F08141617047016170476F
:1004B00029B1064A92690243044B9A6104E0034A57
:1004C00092698243014B9A6170470000001002401C
:1004D00010B500F001F810BD0CB50020019000909F
:1004E0003348006840F480303149086000BF30482C
:1004F000006800F4003000900198401C01900098C2
:1005000018B90198B0F5A06FF1D12948006800F43E
:10051000003010B10120009001E000200090009810
:10052000012843D12348006840F0100021490860A9
:100530000846006820F0030008600846006840F0A4
:10054000020008601A484068194948600846406837
:1005500048600846406840F480604860084640684B
:1005600020F47C1048600846406840F4E810486079
:100570000846006840F08070086000BF0C480068C2
:1005800000F000700028F9D00948406820F003000E
:10059000074948600846406840F00200486000BFD4
:1005A0000348406800F00C000828F9D10CBD000099
:1005B000001002400020024010B51348006840F0CF
:1005C00001001149086008464068104908400E497A
:1005D0004860084600680E4908400B490860084614
:1005E000006820F4802008600846406820F4FE007F
:1005F00048604FF41F008860FFF76AFF4FF000600B
:100600000449086010BD0000001002400000FFF81F
:10061000FFFFF6FE08ED00E000B585B001214802BD
:10062000FFF746FF01208DF80500002003904FF4EE
:10063000602002900020009001208DF81000002022
:100640008DF8040069460448FFF714FE01210248B2
:10065000FFF7F7FD05B000BD0024014008B50121FA
:100660000820FFF725FF01210420FFF721FF1020BC
:100670008DF803000720ADF8000003208DF802007C
:1006800069460748FFF785FE00208DF80300022029
:10069000ADF8000069460348FFF77BFE08BD000087
:1006A000000C01400008014008B5FFF7D7FFFFF735
:1006B000B3FF4EE000F078F826490880084600882D
:1006C00000F0BAF904460020234B0246234900906B
:1006D000204600F04DF822490860002120480068BB
:1006E00000F0BEFA0DD81F491D48006800F0B8F9A7
:1006F00007D201211C48FFF7D9FE03211A48FFF752
:10070000D3FE18491648006800F0AAFA0DD8174918
:100710001348006800F0A4F907D203211248FFF73C
:10072000C5FE04211048FFF7BFFE10490C480068C1
:1007300000F096FA0DD808490948006800F090F9D1
:1007400007D207210848FFF7B1FE07210648FFF747
:10075000ABFEAFE7000000200000344300E07B4523
:100760000400002000007042000C01400000F04234
:100770002DE9F05F04460D4616461F46DDF8288039
:100780003146284600F09EFA82464146384600F03F
:1007900099FA8346514600F08DF88146214600F0D3
:1007A00093F9BDE8F09F000010B505230122114622
:1007B0000848FFF787FD01210648FFF7DFFD00BF6E
:1007C00002210448FFF74CFD0028F9D00148FFF74B
:1007D00043FD10BD0024014090EA010F48BF81F0A5
:1007E000004100F17682421A3CBF801A89184FEA14
:1007F000D0524FF07F4C1CEA410FA2EBD15318BFEF
:100800009CEA026F00F03B804FF0004C4CEA002065
:100810004CEA012121FA03FC10EB0C0C1ED202F170
:10082000FF325FEA1C2040EBC25038BF70471CF01B
:100830007F0F4FEA400C18BFBCF17F4F38BF7047A5
:10084000C3F12003994008BF20F00100BCF17F4FA5
:1008500038BF7047A0F1C04000F0FDB94FEA3C003E
:10086000000A40EBC25028BF1CF0FF0F4FEA400CBB
:10087000E6D018BFBCF17F4F38BF7047EAE79CEA6B
:10088000026F05D010EA5C0F08BF00F0004070470F
:1008900010B500F09AF900BF64FBBE3E401058BF8F
:1008A000C0F14040491058BFC1F140418142EFF3CF
:1008B000008070474FF47F0C1CEAD0121EBF1CEA68
:1008C000D11392EA0C0F93EA0C0F00F0858090EAA6
:1008D000010F48BF42F4807240F4000C41F4000064
:1008E0002CF07F4120F07F4000B58142A2EB030253
:1008F0000FF2081CACEB504EC0F100009EF800E077
:100900004FEA4E0E00FB0EFC38BF49004FEA2C1C8C
:1009100002F5FA020CFB0EF34FEACE1E4FEA112C41
:100920004FEAC1210EEB635E42EB22420EFB0CFC50
:100930004FEA1C5300FB03114FEA112C4FEA01311F
:100940000EFB0CFC4FEADC4C00FB0C11C14228BF33
:1009500009184CEB03335DF804EB10EB410143EB5A
:10096000C250B2F57C0F38BF704729D512F0F00F96
:100970001CBF00F1C04000F000407047008182833E
:100980008485868788898B8C8D8E8F91929395969E
:1009900097999A9C9D9FA0A2A3A5A7A8AAACAEB028
:1009A000B2B3B5B7B9BCBEC0C2C5C7C9CCCED1D42D
:1009B000D7D9DCDFE2E6E9ECF0F3F7FAFE0000005D
:1009C0004FEA400C0CF1807CBCF17E4F28BF704791
:1009D000B0F1C04000F03FB990EA010F0CEAD1132A
:1009E00048BF42F48072624538BF634507D213F4B2
:1009F0007F0F16D080EA010000F00040704710B56C
:100A000000F0E3F8097EFC3E00F005B880EA010042
:100A100000F00040704780EA010000F0004000F064
:100A20001AB912F47F0F04BF0248704780EA010030
:100A300000F011B90000C07FB0FA80F310FA03F2A1
:100A4000C3F19D030AD0D90501EB1220530638BF2C
:100A5000704700F1010008BF20F00100704700005E
:100A600050EA010C00F113801CF5000F58BFBCF5D3
:100A7000000F01D48842704707D710F5000F58BF08
:100A800011F5000F15D488427047894270471CF554
:100A9000000F04D5BCF5000FF7D5814270474FF029
:100AA000807C1CEB400F38BF1CEB410F01D2814210
:100AB000704710B500F089F8922449004FF00050BB
:100AC0004FF08051FFF7EABE4FF47F0C1CEAD012C2
:100AD0001EBF1CEAD11392EA0C0F93EA0C0F00F030
:100AE000478090EA010F48BF42F480724FF0004CFB
:100AF0004CEA00204CEA012102EB0302A0FB0113A7
:100B0000A2F50002002918BF43F001035B0028BFD3
:100B10004FEA330342EB22425FEA132C4CEBC25004
:100B20002EBFBCEB436FB2F57C0F70474FEA036CEE
:100B3000BCF1004F08BF20F00100B2F57C0F38BFB8
:100B400070470BD582F0FF0212F5803FC8BF704797
:100B500000F1C040D8BF00F00040704700F5000C25
:100B60005FEA4C0C48BF7047B0F1C04000F073B86A
:100B700090EA010F0CEAD11348BF42F4807262453B
:100B800038BF634504D280EA010000F0004070479E
:100B900010B500F01AF800BF8900013E00F007B858
:100BA00000F009B85FEA410C5FEA1C6C08D080EAEB
:100BB000010000F050B85FEA400C5FEA1C6CF6D10F
:100BC0004FF00040A0F5800070470EF1020E2EF0AD
:100BD000030E5EF8044B244204D44FEA4102B2F102
:100BE0007F4F11D84FEA4003B3F17F4F0CD80ED19D
:100BF0004FEAD07CB2F17F4F0CEB4C0C0CF1020CA5
:100C000008BF4CEBD17C04E04FF0080C01E04FEA48
:100C1000D17C0CEB4C0324FA03F404F00704B4F188
:100C2000040C06D20EEB840CBDE810404CF0010C15
:100C30006047DFE80CF0070802024FF00040A0F523
:100C4000800010BD0846420018BFD2F1807288BFF4
:100C500000F0004010BDFF2141EAD050C0057047B0
:100C600051EA000C00F113801CF5000F58BFBCF5D1
:100C7000000F01D48142704707D711F5000F58BF0C
:100C800010F5000F15D481427047894270471CF55A
:100C9000000F04D5BCF5000FF7D5884270474FF020
:100CA000807C1CEB410F38BF1CEB400F01D2884207
:100CB000704780EA010081EA000180EA0100FFF745
:100CC000F8BE000090EA010F48BF81F000413FF5F7
:100CD0008AAD421A04D882F00042A0EB020011440F
:100CE0004FEAD0524FF07F4C1CEA410FA2EBD15398
:100CF00018BF9CEA026F4AD04FF0004C4CEA00202B
:100D00004CEA012121FA03FCB0EB0C0C0FD412F0D9
:100D1000FE0F36D05FEA4C001DD5001240EBC250EA
:100D200038BF70471CF03F0F18BF70470BE0A2F1AF
:100D300001025FEA1C2040EBC25038BF70471CF034
:100D40007F0F18BF7047C3F12003994014BF401EA6
:100D500020F00100704780084FEA122308BF704757
:100D6000B0FA80FCA2EB0C02CCF1280C60FA0CF07B
:100D700093EA122F04BF00EBC25070474FEAC370D2
:100D80007047130A5FEADC1008BF7047F6E79CEA79
:100D9000026F04D010EA5C0F08BF0020704710B546
:100DA000FFF713FF40DFF63E81F000407047000080
:100DB000D00D0008000000200800000028010008F5
:100DC000D80D00080800002060060000440100085B
:080DD00000000000000000001B
:040000050800018965
:00000001FF
