:020000040800F2
:1000000060050020D1000008191700082D1600080F
:1000100000000000000000000000000000000000E0
:100020000000000000000000000000001D17000894
:1000300000000000000000001B1700081F17000848
:10004000E3000008E3000008E3000008E300000804
:10005000E3000008E3000008E3000008C502000810
:10006000E30000080502000815020008E30000088C
:10007000E3000008E3000008E3000008E3000008D4
:10008000E3000008E3000008E3000008E3000008C4
:10009000E3000008E3000008E3000008E3000008B4
:1000A000E3000008E3000008E30000081D1E00084C
:1000B000E3000008E3000008E30000080348854669
:1000C00000F08EF800480047911E000860050020EF
:1000D0000448804704480047FEE7FEE7FEE7FEE7E6
:1000E000FEE7FEE7B1170008BD00000830B50B467B
:1000F000014600202022012409E00D46D5409D4202
:1001000005D31D469540491B254695404019154687
:10011000521E002DF1DC30BDF0B51FB406460020A4
:1001200082B005464024019100901BE001992246CF
:100130000F46304600F042F8049A059B801A994118
:1001400010D310461946224600F028F8361A8F417F
:100150000197224601200021009F00F01FF8381867
:100160004D4100902046641E0028DFDC019B009872
:100170002946324607B0F0BDD2B201E00270401C01
:10018000491EFBD270470022F6E710B513460A4617
:1001900004461946FFF7F0FF204610BD10B5202A8F
:1001A00004DB0146203A9140002010BD91402023FD
:1001B0009C1A0346E3401943904010BD10B5202A15
:1001C00004DB0846203AD040002110BD0B46D34046
:1001D000D0402024A21A91400843194610BD0000C7
:1001E000064C0125064E05E0E36807CC2B430C3C8A
:1001F00098471034B442F7D3FFF764FFBC1F0008E0
:10020000DC1F000810B5024800F0DCF810BD00004B
:10021000A800002010B5024800F0D4F810BD00007E
:100220000401002010B50446006C094980088000D4
:1002300040186064207814210838FFF757FF0449FC
:100240008031A164C106C90E01208840E06410BD60
:10025000000802400179084B8906890E8A00D218ED
:100260000265054A4432491E42658A07920F012100
:100270009140816570470000FC080240F0B5846C35
:10028000C56C6560046D002C02D0446D856D6560A1
:100290000B4C6568066C1C273E400127B7403D4368
:1002A0006560046863608368102B036803D09960FD
:1002B0000068C260F0BD9A600068C160F0BD0000D7
:1002C0000000024010B50120400300F083F910BD8A
:1002D00072B6FEE7F0B5002808D0014620314A7911
:1002E000022A05D00422C263002008710120F0BD5B
:1002F000026813680E24A3431360426C1468FF2342
:1003000001339C431460026814686408640014603C
:100310000C4A5568066C1C24264001242746B74029
:100320003D435560826CC56C5560026D002A05D056
:1003300015689D431560826D406D42604C710020D0
:100340000871F0BD00000240F8B5002402462032DA
:100350005179022903D00421C16301242DE00168F1
:100360000B680E25AB430B6001680B685B085B00F4
:100370000B60416C0B68FF250135AB430B601049E6
:100380004D68066C1C231E4001231F46B7403D43A9
:100390004D60816CC56C4D60016D002906D00E6802
:1003A0001D02AE430E60416D856D4D60537100219D
:1003B0001171816B002900D088472046F8BD0000EC
:1003C00000000240F0B42C490C6802681368056C08
:1003D0001C273D400426AE40264211D05E070FD5B3
:1003E00013689B0603D4146804239C4314604B6871
:1003F000046C04223C40A24013434B60016B1CE0A0
:100400000227AF40064627402036002F19D09F070D
:1004100017D513689B0605D413680A24A3431360F9
:10042000012272714B68046C1C2214400222A2400B
:1004300013434B6000213171C16A00291AD0F0BC0E
:1004400008470827AF40274214D01B0712D513686E
:100450000E24A34313604B68046C1C221440012239
:100460001546A5402B434B60C26372710021317168
:10047000416BE2E7F0BC70470000024070B5040039
:100480003FD02548256814212818FFF72FFE80004B
:100490002064022026462036707128681F490840D3
:1004A0002860E168A0686269084321691143084334
:1004B000A1690843E1690843216A084321680A6881
:1004C000104308602046FFF7ADFE0121A0688903B4
:1004D0000025884200D165602079616C8006800E1D
:1004E0000860A06CE16C41606068401E03280AD877
:1004F0002046FFF7AFFE206D0560606DA16D416085
:1005000004E0012070BD25656565A565E5630120F2
:1005100070713571002070BDF8FFFDBF0F80FFFFC7
:10052000F8B504468C4620300179002501290BD00E
:100530000126067141790027012907D08021E16356
:10054000077101252846F8BD0220F8BD022141713E
:10055000E763206801684908490001606146204658
:10056000FFF78CFE206B00282068016801D00E2266
:1005700005E0042291430160206801680A221143CA
:100580000160606C0168CA03074902D502680A432A
:100590000260206D002802D002680A4302602068D1
:1005A000016831430160CDE70001000070B50446E9
:1005B00000F0DAF80546601C02D0044800782418E0
:1005C00000F0D2F8401BA042FAD370BD0800002012
:1005D0007047000070B5084D0446E868204203D01B
:1005E000EC60204600F00AF82869204203D02C6114
:1005F0002046FFF7EDFF70BD001802407047000075
:10060000FCB5002301259AE022462C469C4022405E
:100610006FD04E68012E05D0022E03D0112E01D0CE
:10062000122E16D186680327B4465E00B646B74040
:100630006646BE43B446CF687646B7406646374303
:1006400087604668A6430C79E406E40F9C40344377
:100650004460C6685F000324BC40A446A6438C687F
:10066000BC403443C4604C68022C01D0122C14D11D
:10067000DC08A40024180194266A5C07B646E60E3E
:100680000F24B44000967646A643B6460C69009EF9
:10069000B44076462643019C266204686646B4430D
:1006A0000E79B607B60FBE40264306604C68E400DC
:1006B00044D59E08254CB6003419A446246E9E07E6
:1006C000F60E0F27B740BC4305273F07B84201D1BC
:1006D000002710E01E4FB84201D101270BE01D4F4B
:1006E000B84201D1022706E01B4FB84202D10327CE
:1006F00001E023E00527B740274364462766134EF1
:10070000803634684F689443FF0300D51443346047
:1007100074684F689443BF0300D5144374600B4C56
:1007200026684F689643FF0200D516432660666828
:100730004F689643BF0200D5164366605B1C0A688B
:100740001446DA4000D05FE7FCBD0000001802400C
:100750000004005000080050000C0050002A01D096
:10076000816170478162704701488068704700006E
:10077000080000200248816802788918816070476B
:100780000800002010B508480024016882151143B4
:100790000160204600F00AF8002801D0012401E0A1
:1007A00000F028F8204610BD0020024070B50F4E22
:1007B000002431780546002915D07D20C000FFF7C0
:1007C00095FC01460A480068FFF790FC00F05AFCCF
:1007D000002808D1042D06D200222946401E00F030
:1007E0002FF8756000E00124204670BD080000204D
:1007F0001400002008B50B48016801221143016074
:1008000000681040009007484038C26B01040A435A
:10081000C263C06B084000900320400200F028FC37
:1008200008BD000040100240002805DBC106C90ECB
:1008300001208840014908607047000000E100E0A5
:1008400010B501F0F3FA10BD10B50F4C216803226A
:100850005202914301432160C11FFF39FA390ED181
:100860000A480621006848430949FFF73FFC401C3D
:1008700002E0002805D0401E61694905F9D4002036
:1008800010BD032010BD00000070004014000020C7
:1008900040420F00FEB5044600680027704D714EBF
:1008A000800355D500200090F06BC00007D4F16B99
:1008B000A8050143F163F16B0140012000906A48F3
:1008C0000168821511430160FFF74EFF019005E0BA
:1008D000FFF74AFF0199401A022825D862480068AC
:1008E000C005F5D5E8690321090208400FD0216B46
:1008F00081420CD0E86903210902EA698843012199
:1009000009040A43EA61EA698A43EA61E861C007C7
:100910000FD0FFF729FF019008E0FFF725FF0199AD
:10092000411A5248814201D9032709E0E86980074A
:10093000F3D5E869032109028843216B0843E86184
:100940000098002804D0F16B012000078143F16377
:100950002078C00705D06869616880088000084376
:1009600068612078800705D568690C218843A168F3
:10097000084368612078C00606D5686903218902AA
:100980008843E168084368612088800506D5686966
:10099000032189048843A1690843686120884005D0
:1009A00006D56869032109058843E1690843686140
:1009B0002078800606D568690321090388432169E8
:1009C00008436861208840040ED56869216A800068
:1009D0008008084368610121206A8907884203D1A1
:1009E000F06889130843F0602068000305D5686942
:1009F00040218843616A08436861206881021C487D
:100A00000BD569698210A36A914319436961A16A90
:100A1000914202D1F1680143F160216849020AD58F
:100A20006969E26A814311436961E16A814202D1E5
:100A3000F1680143F160208800050FD56869032142
:100A400089038843616908436861012160698903FA
:100A5000884203D1F06889000843F0603846FEBD43
:100A60004010024000100240007000408813000057
:100A700000000001F8B50F46060043D04D4D286830
:100A80004007400FB84213D22868C008C00038435E
:100A90002860FFF769FE044605E0FFF765FE011BCD
:100AA0004548814261D828684007400FB842F4D1D8
:100AB0003068424C81070DD5400704D5A068072156
:100AC00009030843A060A0680F2109028843B168A8
:100AD0000843A0603078C00732D0706801280AD07F
:100AE00002280BD000280FD03449403103280ED003
:100AF000C969890704E02168890301E02168890147
:100B0000002906DB0120F8BD21684905F8E7096ADC
:100B1000EFE7A168C908C9000143A160FFF724FEFF
:100B2000009006E0FFF720FE0099411A224881421A
:100B30001BD8A068382108407168C9008842F1D1EB
:100B400028684007400FB84217D91A480168C908F9
:100B5000C90039430160FFF707FE054607E0FFF7CC
:100B600003FE411B1448814201D90320F8BD1148FE
:100B700000684007400FB842F1D13078400706D5F1
:100B8000A068072109038843F1680843A06000F0CA
:100B900031F8A1683C2289091140094A515CC90613
:100BA000C90EC8400749086007480068FFF7FEFD06
:100BB000F8BD000000200240881300000010024031
:100BC0005C1F0008140000200C00002006480749A4
:100BD00000688968064A4904490F8900515CC906C2
:100BE000C90EC840704700001400002000100240E9
:100BF0009C1F000810B5204CA068204A8006400FBA
:100C000016D0A0688006410F501001290FD0A168AE
:100C10008906490F022912D0A0688006400F0428D7
:100C200023D0A0688006400F032821D0002010BDEB
:100C3000206801218004400F8140104612E0E168E5
:100C40008B07E1689B0F4906490F491C032B00D015
:100C50001046FFF74BFAE1684904490E4843E16842
:100C6000490F491CFFF742FA10BD0120C00310BD17
:100C70007D20000210BD0000001002400024F4009E
:100C8000F8B504007ED020783827C007EF4D002843
:100C900046D0A868E96838408907890F102802D033
:100CA00008280BD001E0032908D001206268000465
:100CB00082420AD129680143296015E0286880032F
:100CC0002ED560680028DDD02AE0052301211B0411
:100CD00089049A422A6802D10A432A60EAE78243D9
:100CE0002A60286888432860606800280CD0FFF7D5
:100CF0003BFD064604E0FFF737FD801B642873D8F0
:100D000028688003F7D50BE0FFF72EFD064604E0C8
:100D1000FFF72AFD801B6428F1D828688003F7D4E8
:100D20002078800769D5A868E96838408A070721D4
:100D3000920FC902102802D0002813D001E0022A25
:100D400010D0E068002846D028688843216908430D
:100D500028602868FF21013108432860FFF704FD5F
:100D600006462CE02A68520502D5E268002A89D09E
:100D70006A687F231B029A4363691B021A436A60F5
:100D8000002800E08DE00ED12868884321690843DF
:100D90002860286801218004400F8140AC48FFF79B
:100DA000A5F9AC490860AC480068FFF7FFFC0028D3
:100DB00077D122E0FFF7D8FC801B02289FD8286853
:100DC0004005F7D568687F210902884361690902F7
:100DD0000843686011E02968FF20013081432960E1
:100DE000FFF7C2FC064605E098E0FFF7BDFC801B5C
:100DF000022884D828684005F7D42078974E000749
:100E00002ED5A8688006400F03280AD0A0690028C4
:100E1000306A16D0012108433062FFF7A5FC07466F
:100E20000BE0306A80071BD5A06900289FD017E02F
:100E3000FFF79AFCC01B022870D8306A8007F7D5EC
:100E40000EE0400840003062FFF78EFC074604E0E9
:100E5000FFF78AFCC01B022860D8306A8007F7D4ED
:100E6000207840076CD5A86800278006400F04282A
:100E700018D0E86BC00008D4E96B012000070143DB
:100E8000E963E96B01400127009175480168C905D4
:100E900019D40168821511430160FFF765FC0090C9
:100EA0000DE083E0F06980074AD5A06800287DD076
:100EB00046E0FFF759FC0099401A02282ED86848EE
:100EC0000068C005F5D5A168012910D004200529C6
:100ED000F16911D049084900F161F1698143F1617B
:100EE000A068002816D0FFF73FFC00900EE0F069E4
:100EF00001210843F061F3E70143F161F7E7FFF7F0
:100F000033FC0099411A574881426FD8F069800735
:100F1000F5D50EE0FFF728FC009007E066E0FFF74C
:100F200023FC0099411A4F4881425FD8F06980073D
:100F3000F5D4002F04D0E86B012109078843E8634A
:100F4000E06900287FD0A9688906490F022953D09B
:100F500001263606022828680DD0B0432860E868CC
:100F600080088000E860E8683F490840E860FFF7D3
:100F7000FBFB04463CE0B0432860FFF7F5FB074667
:100F800004E0FFF7F1FBC01B02282FD8286880017E
:100F9000F7D4616A206AA26A0843E16A1202114327
:100FA0000843216B0843616B084300E049E0E968AE
:100FB0002E4A11400843E860286830432860E868FA
:100FC000012109070843E860FFF7CEFB044604E06F
:100FD000FFF7CAFB001B022808D828688001F7D554
:100FE00031E0FFF7C1FB001B022801D90320F8BD47
:100FF00028688001F5D426E00128F8D0E868226A44
:101000008107890F91421CD17021626A014091428F
:1010100017D17F21A26A090201401202914210D128
:101020001F214904E26A014091420AD10721490681
:10103000226B0140914204D1400F616B400788420E
:1010400001D00120F8BD0020F8BD000000100240D2
:101050000024F400140000200C0000204010024086
:101060000070004088130000FFFFFEEE8C80C1116D
:1010700003490A6803235B029A4302430A607047EC
:1010800000000140094910B5401E884201D90120E5
:1010900010BD074C60610321081F00F0C7FE00204F
:1010A000A06107202061002010BD0000FFFFFF00AD
:1010B00000E000E010B5014680310A78012A15D021
:1010C00001220A7024224A600268136814686408C6
:1010D00064001460012252079343002242660068B4
:1010E0000360202048600A70104610BD022010BD29
:1010F0007047704770B50446054680342078012853
:101100001AD00120207024206060286806680268D8
:101110005208520002602868826807235B069A43DF
:101120000A438260284600F04BFB286806602020B6
:1011300060600020207070BD022070BD70B5044654
:10114000054680342078012819D001202070242001
:1011500060602868066802685208520002602868C9
:101160008268D200D2080A438260284600F028FB39
:1011700028680660202060600020207070BD02207A
:1011800070BD704770477047F8B503680446D96969
:1011900018689A68914D0E462E4025468035002EDF
:1011A0006CD08F4E8F4F1640074037437FD0CF070C
:1011B00006D0C70504D501271F62EB683B43EB60EF
:1011C0008B0708D5D30706D0276802233B62EB685C
:1011D00004273B43EB604B0708D5D30706D02768AD
:1011E00004233B62EB6802273B43EB600B0709D506
:1011F00020230340334305D0266808233362EE687A
:101200001E43EE600B0509D5430107D5012326686F
:10121000DB023362EB6820263343EB60EB68002B84
:101220003AD089060AD520210840C9050A40104352
:1012300004D0216F002901D020468847E868216842
:101240008968490602D4282108422AD0204600F0A5
:101250000BFC2068816849061FD5826840218A43BB
:101260008260E06F002818D05F498163E06FFFF76C
:101270006BF8002810D0E06F816B0CE08E0616D55D
:10128000012720263F07064017403E430FD0216F1D
:101290007FE00CE020468847F8BD2046FFF773FF4B
:1012A000F8BD2046FFF76FFF0020E860F8BDE66E4E
:1012B000012E59D1CE0657D5C60655D510221A6231
:1012C0002068816826464906403600292BDAE36FFC
:1012D000196849680904090CE8D0B78B8F42E5D931
:1012E000F18319680968890618D4016813019943C4
:1012F0000160206881684908490081602068816830
:101300004023994381602020A8600020E066206887
:10131000016891430160E06FFEF7DCFFB08BF18B59
:10132000401A81B21CE0B18BF38BC91AF38B89B2DE
:10133000002BBBD00029B9D00368FF262136B34368
:10134000036020688368264EF64333408360202084
:10135000A8600020E066206720680368934303606C
:101360002046FFF7C5FEF8BDCE0208D5560206D5C9
:101370000120000518622046FFF704FFF8BD0E06A5
:101380000BD501278026FF0506403A40164304D0BE
:10139000616F002900D07DE7F8BD4A060DD54206F1
:1013A0000BD51A68204640218A431A6020216960C3
:1013B0000021616700F038F9F8BD0A0205D5420046
:1013C00003D52046FFF7DDFEF8BDC901FCD5002896
:1013D000FADA2046FFF78DFEF8BD00000F08000086
:1013E00001000010200100045119000870B504002C
:1013F00005D0254680356868002802D006E0012027
:1014000070BD00202870204600F026F82420686077
:1014100020680168490849000160204600F050FB3F
:101420000128EDD0A06A002802D0204600F0F8F98B
:10143000206841680922D202914341602068816896
:101440002A229143816020680168012211430160D2
:10145000204600F04BFA70BDF0B587B00646142167
:101460006846FEF790FE2D493068884254D12C48DA
:101470000268012189030A43026000680840059060
:1014800027484038426B04210A434263406B0024E2
:101490000840059030200090022001900120049027
:1014A0000294039469461F48FFF7AAF81F4D1E488F
:1014B0002860AC60EC606C618027AC612F613220E9
:1014C000EC616860B80128622846FEF7D7FF002863
:1014D00001D0FEF7FDFEF567AE62154D12482946B4
:1014E00014302860332068601020083191C16C618D
:1014F000AC61EC6128462C62FEF7C0FF002801D0E9
:10150000FEF7E6FEB567002211461B20AE62FFF72C
:1015100097F91B20FFF788F907B0F0BD00380140AC
:10152000401002400008005008000240A8000020BF
:101530000401002070B5034680339C68202C19D12B
:1015400000290BD0002A09D0012584682D03AC4264
:1015500006D10469002C03D1CC0701D0012070BD55
:101560001C78012C06D001241C700023C36600F0F7
:10157000C5FB70BD022070BD70477047F8B50546C9
:10158000044680356868202845D100290BD0002A00
:1015900009D00123A0681B03984206D120690028C6
:1015A00003D1C80701D00120F8BD2878012832D026
:1015B000012028702046403021658282C2820026A8
:1015C000EE6021206860A06F002819D01349C16225
:1015D000A16F13480863A16F12484863A06F1346B8
:1015E00086632768216D3A462832A06FFEF798FF80
:1015F000002805D01020E8602E7020206860D2E717
:101600002168402008622E70206881688022114382
:1016100081600020F8BD0220F8BD00002F1A0008EC
:101620005F1A00086519000870477047FEE7000060
:1016300070B586B014216846FEF7A5FD1948426BC7
:1016400004210A434263426B0A400592416B012523
:1016500029434163406B0526284036070590002248
:1016600020213046FFF77AF8680300900E480024E6
:101670000190694602940D48FEF7C2FF20200090B9
:1016800002946946019503943046FEF7B9FF0022A3
:1016900001210720FFF7D4F80720FFF7C5F806B0AF
:1016A00070BD000000100240000011100008005042
:1016B00010B5184816490160E12149024160002136
:1016C0008160C16001618161C16101620C2241627E
:1016D00042618162FFF78AFE002801D072B6FEE700
:1016E00000210C48FFF72AFD002801D072B6FEE762
:1016F00000210848FFF7FEFC002801D072B6FEE783
:101700000448FFF7D7FC002801D072B6FEE710BDF1
:101710000038014018000020FEE77047704710B500
:10172000FFF728F810BD30B59FB038216846FEF7A6
:101730002AFD00251B951C951D9534210EA81E958C
:10174000FEF721FD01204002FFF77EF80224E001B0
:1017500003900094402005900E200A9020040B90E6
:10176000079400020C9003200894400704950D9004
:1017700009956846FFF784FA002801D072B6FEE7A3
:1017800007201BA931C102211BA81E95FFF772F982
:10179000002801D072B6FEE701200E900F950EA82A
:1017A000FFF778F8002801D072B6FEE71FB030BD11
:1017B00001200249C00688607047000000ED00E08B
:1017C000F0B513A106C985B00192009112A206CA14
:1017D000039202910446416E4034002915D00068FE
:1017E0008168806809014D0F400F02AE315C6F4681
:1017F000385CC000FEF77AFC6085785D715DC000E2
:10180000FEF774FC208505B0F0BD01206085F9E786
:10181000010101030701000008040204080101019D
:1018200010B5018DC90707D001684A6801235B0420
:101830009A43C36A1A434A60018D890707D5016834
:101840004A6801231B049A43036B1A434A60018DC3
:10185000490707D501684A6801239B049A43436BF3
:101860001A434A60018D090707D501684A680123B8
:10187000DB039A43836B1A434A60018DC90607D57F
:101880000268916801231B039943C36B194391605C
:10189000018D890607D501688A6801235B039A4395
:1018A000036C1A438A60018D490612D503685A6891
:1018B00001210905446C8A4322435A60426C8A42E2
:1018C00007D10268516803235B059943836C194370
:1018D0005160018D090607D501684A680123DB04C0
:1018E000C06C9A4302434A6010BD0000FEB5054635
:1018F000002680350446EE60FEF736FF0190206832
:101900000068124F000709D5012100970022490500
:101910002046019B00F034FA00280DD120680068B1
:1019200040070BD501210097002289052046019B25
:1019300000F026FA002801D00320FEBD20206860B8
:10194000A860E6662E700020FEBD0000FFFFFF01CC
:1019500010B5806A002201464031CA83CA82FFF76F
:1019600012FC10BDF8B5846A2046803041680546F7
:1019700086682068806800270006002806DA21298A
:1019800004D156200753204600F08AF8206880686A
:10199000400606D5222E04D15E200753204600F0D3
:1019A00063F8E86810210843E8602046FFF7EBFB86
:1019B000F8BD10B501460968806A096889061DD41A
:1019C00000225E210A5201680A68FF2301339A430C
:1019D0000A6001688A68520852008A6001688A6851
:1019E00040239A438A60202288210A50C16E01292F
:1019F00004D101680A6810239A430A60C16E012964
:101A000002D0FFF7B9FD10BD5C21095AFFF770FB4A
:101A100010BD10B5806AC16E012902D0FFF7ADFD7F
:101A200010BD5C21095A4908FFF762FB10BD10B5D3
:101A300001460968806A096889060DD4002256218A
:101A40000A5201688A6880239A438A6000680168A4
:101A500040221143016010BDFFF7E6FD10BD10B537
:101A6000806AFFF7E2FD10BD01680A68FF23213399
:101A70009A430A6001688A68084B1A408A60C16EFE
:101A8000012904D101680A6810239A430A602022C0
:101A900088210A500021C16601677047FEFFFFEFF1
:101AA00001680A68C0239A430A6001688A680123B2
:101AB000DB059A438A602021803041607047000036
:101AC000F8B504462269A168E569114362690026F8
:101AD0002A431143626E00680A437C4B01687C4DC7
:101AE0002940114301602068416803221203914399
:101AF000E268114341602168A069994201D0226ADD
:101B000010438A68734D2A4002438A602068C16A84
:101B1000626A090909011143C1626F4922686F486D
:101B20008A420AD140698007800F1AD001283DD02F
:101B3000022839D0032827D124E069498A420AD1F2
:101B400040690C2108400CD004282FD008282BD045
:101B50000C2819D116E063498A4202D062498A42B0
:101B600001D1002111E09A420ED141690320800287
:101B700001400AD001208002091A17D0091A13D097
:101B8000814201D1082100E010210120574D584F1A
:101B9000C0039A423BD100290AD0022911D004295E
:101BA00009D008297ED10BE00221EEE70421ECE701
:101BB000FFF70CF801E0FFF71DF8050001D17AE00E
:101BC0000546606A4000395A28460091FEF78EFAB1
:101BD000676879007918814269D83903814266D3F0
:101BE000002328461946009AFEF796FA020E0902CB
:101BF0000302780811431818002251413A46002385
:101C0000FEF78AFA03210902411A3A4A4DE0E269D5
:101C1000824228D1002906D0022907D0042907D002
:101C2000082944D108E0FEF7D1FF03E0284603E08D
:101C3000FEF7E0FF00283ED0616A4900795AFEF7BE
:101C400055FA616840004A088018FEF74FFA80B2E2
:101C500002462949103A8A4229D8491C0140000706
:101C6000400F084325E0002906D0022907D00429A7
:101C700007D008291BD108E0FEF7A8FF03E028469B
:101C800003E0FEF7B7FF002815D0616A4900795AD2
:101C9000FEF72CFA61684A088018FEF727FA80B22E
:101CA000014600E003E0144A1039914201D90126AF
:101CB00001E02168C860204601214030418501854E
:101CC0000020206760673046F8BD000000800040BB
:101CD000F369FFCFFFF4FF110038014040100240CC
:101CE0000044004000480040004C00400024F40044
:101CF000441F0008FFFC0F00EFFF0000F8B504468A
:101D0000816540300026254682838035EE602220A2
:101D1000A860E06F00281AD01649C162E16F16482A
:101D20000863E16F15484863E06F13468663A76D4B
:101D300021683A462431E06FFEF7F2FB002806D016
:101D40001020E8602E70202068600120F8BD2E7001
:101D500020680168FF220132114301602068816818
:101D60000122114381602068816840221143816013
:101D70000020F8BDB3190008131A000865190008FF
:101D8000FFB581B005460F46044680350A9E38E00F
:101D9000701C36D0FEF7E8FC0499401AB04221D8F6
:101DA000002E1FD02068016849072AD5C069C043AA
:101DB000000526D401202168C0020862206801685D
:101DC000FF22A132914301602068816849084900DF
:101DD000816020206860A860E860002028700320EF
:101DE00005B0F0BD20680168FF22A1329143016077
:101DF0002068816849084900816020206860A860E7
:101E0000EBE72068C1693846884305D00021039874
:101E10008142BDD00020E3E70121F8E710B5024878
:101E2000FFF7B2F910BD0000180000208307FF2261
:101E3000DB0E9A408907090E9940002808DB8308C9
:101E400009489B001B1818689043084318607047A6
:101E50000007000F0838830804489B001B18D86946
:101E600090430843D861704700E400E000ED00E0D3
:101E700002E008C8121F08C1002AFAD17047704753
:101E8000002001E001C1121F002AFBD170470000B1
:101E900008B5FEF777FCFFF746FCFFF7C9FB2648BD
:101EA000816B012211438163806B104000220090FE
:101EB00011460920FEF7C4FC0920FEF7B5FC0022FC
:101EC00011460A20FEF7BCFC0A20FEF7ADFCFFF726
:101ED000EFFB042219491A48FFF72CFB002801D018
:101EE00072B6FEE7154C00250526241F360725701F
:101EF0002A4620213046FEF731FC0422611C10489E
:101F0000FFF73CFB002801D072B6FEE720780128DD
:101F1000FDD12570012220213046FEF71FFCC8208C
:101F2000FEF744FB002220213046FEF717FCC820B4
:101F3000FEF73CFBFEE7000000100240040000201A
:101F400018000020010002000400060008000A003A
:101F50000C00100020004000800000010000000084
:101F60000000000000000000000000000000000071
:101F70000000000000000000000000000100000060
:101F80000200000003000000040000000600000042
:101F90000700000008000000090000000000000029
:101FA0000000000000000000000000000100000030
:101FB000020000000300000004000000DC1F000815
:101FC0000000002018000000701E0008F41F000828
:101FD0001800002048050000801E000800010203D0
:101FE00000000000010000000400000000000000EC
:041FF0000024F400D5
:04000005080000BD32
:00000001FF
