:020000040800F2
:10000000A8040020D10000088F0F00088D0F000801
:1000100000000000000000000000000000000000E0
:10002000000000000000000000000000930F000826
:100030000000000000000000910F0008950F00086C
:10004000E3000008E3000008E3000008E300000804
:10005000E3000008E3000008E3000008E3000008F4
:10006000E3000008E3000008E3000008E3000008E4
:10007000E3000008E3000008E3000008E3000008D4
:10008000E3000008E3000008E3000008E3000008C4
:10009000E3000008E3000008E3000008E3000008B4
:1000A000E3000008E3000008E3000008E3000008A4
:1000B000E3000008E3000008E30000080348854669
:1000C00000F08EF80048004761150008A8040020E1
:1000D0000448804704480047FEE7FEE7FEE7FEE7E6
:1000E000FEE7FEE715100008BD00000830B50B461E
:1000F000014600202022012409E00D46D5409D4202
:1001000005D31D469540491B254695404019154687
:10011000521E002DF1DC30BDF0B51FB406460020A4
:1001200082B005464024019100901BE001992246CF
:100130000F46304600F042F8049A059B801A994118
:1001400010D310461946224600F028F8361A8F417F
:100150000197224601200021009F00F01FF8381867
:100160004D4100902046641E0028DFDC019B009872
:100170002946324607B0F0BDD2B201E00270401C01
:10018000491EFBD270470022F6E710B513460A4617
:1001900004461946FFF7F0FF204610BD10B5202A8F
:1001A00004DB0146203A9140002010BD91402023FD
:1001B0009C1A0346E3401943904010BD10B5202A15
:1001C00004DB0846203AD040002110BD0B46D34046
:1001D000D0402024A21A91400843194610BD0000C7
:1001E000064C0125064E05E0E36807CC2B430C3C8A
:1001F00098471034B442F7D3FFF764FFFC160008A9
:100200001C17000870B5044600F0C8F80546601CCD
:1002100002D004480078241800F0C0F8401BA04227
:10022000FAD370BD00000020FCB5002301259AE040
:1002300022462C469C4022406FD04E68012E05D0AD
:10024000022E03D0112E01D0122E16D1866803275C
:10025000B4465E00B646B7406646BE43B446CF6875
:100260007646B7406646374387604668A6430C79B2
:10027000E406E40F9C4034434460C6685F000324F6
:10028000BC40A446A6438C68BC403443C4604C6860
:10029000022C01D0122C14D1DC08A40024180194E3
:1002A000266A5C07B646E60E0F24B44000967646F2
:1002B000A643B6460C69009EB44076462643019C90
:1002C000266204686646B4430E79B607B60FBE4090
:1002D000264306604C68E40044D59E08254CB600D1
:1002E0003419A446246E9E07F60E0F27B740BC4370
:1002F00005273F07B84201D1002710E01E4FB84242
:1003000001D101270BE01D4FB84201D1022706E0C1
:100310001B4FB84202D1032701E023E00527B74075
:10032000274364462766134E803634684F689443EB
:10033000FF0300D51443346074684F689443BF03CF
:1003400000D5144374600B4C26684F689643FF0237
:1003500000D51643266066684F689643BF0200D5F5
:10036000164366605B1C0A681446DA4000D05FE7FB
:10037000FCBD0000001802400004005000080050BE
:10038000000C00500069084000D001207047002A8E
:1003900001D0816170478162704700000148806828
:1003A0007047000000000020024881680278891828
:1003B000816070470000002010B5084800240168E3
:1003C000821511430160204600F00AF8002801D090
:1003D000012401E000F028F8204610BD0020024072
:1003E00070B50F4E002431780546002915D07D20C8
:1003F000C000FFF77BFE01460A480068FFF776FE63
:1004000000F04EFC002808D1042D06D20022294617
:10041000401E00F023F8756000E00124204670BD06
:10042000000000200C00002008B50B4801680122E4
:100430001143016000681040009007484038C26BCB
:1004400001040A43C263C06B0840009003204002CD
:1004500000F01CFC08BD00004010024010B500F088
:10046000E5FF10BD10B50F4C2168032252029143E5
:1004700001432160C11FFF39FA390ED10A48062114
:10048000006848430949FFF731FE401C02E000289C
:1004900005D0401E61694905F9D4002010BD032034
:1004A00010BD0000007000400C00002040420F0012
:1004B000FEB5044600680027704D714E800355D587
:1004C00000200090F06BC00007D4F16BA805014339
:1004D000F163F16B0140012000906A4801688215C8
:1004E00011430160FFF75AFF019005E0FFF756FF47
:1004F0000199401A022825D862480068C005F5D540
:10050000E8690321090208400FD0216B81420CD019
:10051000E86903210902EA698843012109040A43C1
:10052000EA61EA698A43EA61E861C0070FD0FFF730
:1005300035FF019008E0FFF731FF0199411A524859
:10054000814201D9032709E0E8698007F3D5E8690A
:10055000032109028843216B0843E86100980028C1
:1005600004D0F16B012000078143F1632078C007BC
:1005700005D0686961688008800008436861207858
:10058000800705D568690C218843A1680843686124
:100590002078C00606D56869032189028843E1688E
:1005A000084368612088800506D5686903218904AD
:1005B0008843A169084368612088400506D56869B9
:1005C000032109058843E1690843686120788006B2
:1005D00006D56869032109038843216908436861D6
:1005E000208840040ED56869216A8000800808438D
:1005F00068610121206A8907884203D1F068891364
:100600000843F0602068000305D5686940218843ED
:10061000616A08436861206881021C480BD56969DA
:100620008210A36A914319436961A16A914202D180
:10063000F1680143F160216849020AD56969E26AFB
:10064000814311436961E16A814202D1F16801434A
:10065000F160208800050FD568690321890388436C
:10066000616908436861012160698903884203D197
:10067000F06889000843F0603846FEBD4010024033
:1006800000100240007000408813000000000001CC
:10069000F8B50F46060043D04D4D28684007400F7F
:1006A000B84213D22868C008C00038432860FFF75A
:1006B00075FE044605E0FFF771FE011B45488142C7
:1006C00061D828684007400FB842F4D13068424CE6
:1006D00081070DD5400704D5A06807210903084309
:1006E000A060A0680F2109028843B1680843A06098
:1006F0003078C00732D0706801280AD002280BD0A9
:1007000000280FD03449403103280ED0C969890729
:1007100004E02168890301E021688901002906DBE2
:100720000120F8BD21684905F8E7096AEFE7A168EB
:10073000C908C9000143A160FFF730FE009006E040
:10074000FFF72CFE0099411A224881421BD8A0686D
:10075000382108407168C9008842F1D128684007F3
:10076000400FB84217D91A480168C908C90039436F
:100770000160FFF713FE054607E0FFF70FFE411B80
:100780001448814201D90320F8BD11480068400790
:10079000400FB842F1D13078400706D5A068072154
:1007A00009038843F1680843A06000F031F8A168AC
:1007B0003C2289091140094A515CC906C90EC8404A
:1007C0000749086007480068FFF70AFEF8BD000007
:1007D0000020024088130000001002409C16000810
:1007E0000C000020040000200648074900688968C2
:1007F000064A4904490F8900515CC906C90EC84020
:10080000704700000C00002000100240DC160008B9
:1008100010B5204CA068204A8006400F16D0A06872
:100820008006410F501001290FD0A1688906490F99
:10083000022912D0A0688006400F042823D0A068A7
:100840008006400F032821D0002010BD2068012120
:100850008004400F8140104612E0E1688B07E16898
:100860009B0F4906490F491C032B00D01046FFF788
:100870003DFCE1684904490E4843E168490F491CC1
:10088000FFF734FC10BD0120C00310BD7D20000225
:1008900010BD0000001002400024F400F8B5040070
:1008A0007ED020783827C007EF4D002846D0A868B2
:1008B000E96838408907890F102802D008280BD032
:1008C00001E0032908D001206268000482420AD1B5
:1008D00029680143296015E0286880032ED56068E7
:1008E0000028DDD02AE0052301211B0489049A4257
:1008F0002A6802D10A432A60EAE782432A6028680C
:1009000088432860606800280CD0FFF747FD064642
:1009100004E0FFF743FD801B642873D82868800338
:10092000F7D50BE0FFF73AFD064604E0FFF736FD8A
:10093000801B6428F1D828688003F7D420788007CA
:1009400069D5A868E96838408A070721920FC9026B
:10095000102802D0002813D001E0022A10D0E0684D
:10096000002846D028688843216908432860286801
:10097000FF21013108432860FFF710FD06462CE0F7
:100980002A68520502D5E268002A89D06A687F2366
:100990001B029A4363691B021A436A60002800E045
:1009A0008DE00ED1286888432169084328602868B3
:1009B00001218004400F8140AC48FFF797FBAC4910
:1009C0000860AC480068FFF70BFD002877D122E0F3
:1009D000FFF7E4FC801B02289FD828684005F7D564
:1009E00068687F21090288436169090208436860D9
:1009F00011E02968FF20013081432960FFF7CEFC18
:100A0000064605E098E0FFF7C9FC801B022884D861
:100A100028684005F7D42078974E00072ED5A8689F
:100A20008006400F03280AD0A0690028306A16D03B
:100A3000012108433062FFF7B1FC07460BE0306A42
:100A400080071BD5A06900289FD017E0FFF7A6FC00
:100A5000C01B022870D8306A8007F7D50EE0400826
:100A600040003062FFF79AFC074604E0FFF796FC6F
:100A7000C01B022860D8306A8007F7D4207840076E
:100A80006CD5A86800278006400F042818D0E86BB2
:100A9000C00008D4E96B012000070143E963E96B5A
:100AA00001400127009175480168C90519D4016802
:100AB000821511430160FFF771FC00900DE083E0A7
:100AC000F06980074AD5A06800287DD046E0FFF78E
:100AD00065FC0099401A02282ED868480068C005B5
:100AE000F5D5A168012910D004200529F16911D09C
:100AF00049084900F161F1698143F161A06800286A
:100B000016D0FFF74BFC00900EE0F069012108437E
:100B1000F061F3E70143F161F7E7FFF73FFC00996C
:100B2000411A574881426FD8F0698007F5D50EE029
:100B3000FFF734FC009007E066E0FFF72FFC009918
:100B4000411A4F4881425FD8F0698007F5D4002FE1
:100B500004D0E86B012109078843E863E0690028B5
:100B60007FD0A9688906490F022953D0012636068D
:100B7000022828680DD0B0432860E868800880000B
:100B8000E860E8683F490840E860FFF707FC044672
:100B90003CE0B0432860FFF701FC074604E0FFF7A4
:100BA000FDFBC01B02282FD828688001F7D4616A9A
:100BB000206AA26A0843E16A120211430843216BCA
:100BC0000843616B084300E049E0E9682E4A1140A0
:100BD0000843E860286830432860E8680121090775
:100BE0000843E860FFF7DAFB044604E0FFF7D6FBB2
:100BF000001B022808D828688001F7D531E0FFF7EC
:100C0000CDFB001B022801D90320F8BD2868800114
:100C1000F5D426E00128F8D0E868226A8107890F18
:100C200091421CD17021626A0140914217D17F210B
:100C3000A26A090201401202914210D11F21490407
:100C4000E26A014091420AD107214906226B014024
:100C5000914204D1400F616B4007884201D00120CE
:100C6000F8BD0020F8BD0000001002400024F40090
:100C70000C000020040000204010024000700040E2
:100C800088130000FFFFFEEE8C80C11103490A6843
:100C900003235B029A4302430A607047000001404D
:100CA000094910B5401E884201D9012010BD074CEA
:100CB00060610321081F00F0B9FB0020A06107203C
:100CC0002061002010BD0000FFFFFF0000E000E0F9
:100CD00070B5040005D0254680356868002802D02C
:100CE00006E0012070BD00202870204600F026F8A4
:100CF0002420686020680168490849000160204696
:100D000000F028FA0128EDD0A06A002802D0204681
:100D100000F088F9206841680922D20291434160BD
:100D2000206881682A22914381602068016801223D
:100D300011430160204600F0DBF970BD10B586B0AC
:100D4000044614216846FFF71EFA124920688842BB
:100D50001ED111480268012189030A43026000681C
:100D6000084005900C484038426B04210A43426316
:100D7000406B084005903020009002200190002038
:100D8000029003900120049069460448FFF74CFA52
:100D900006B010BD0038014040100240000800506D
:100DA000FFB5074604468037B86885B00E46202850
:100DB0007CD1002E0CD00798002809D00120A16812
:100DC0000003814207D12069002804D1F00702D036
:100DD000012009B0F0BD3878012867D001203870B3
:100DE0000020F8602221B960E066FFF7D7FA04908E
:100DF000254640350798A8830798E8830121A06815
:100E00000903FF22884204D12369002B0BD1284A11
:100E100009E0002817D001221207904218D1226958
:100E2000002A13D03F222A8492B20292884202D131
:100E3000206900280ED00196002600203870029804
:100E4000C0B2039024E02369002BECD07F22EAE7B4
:100E50000022E8E700200190EFE7089800900022C8
:100E600020212046049B00F093FA002801D00320A3
:100E7000AFE701980028206812D0416A039801402A
:100E8000019801700198401C0190E88B401EE88396
:100E9000E88B0028E1D12020B860002099E705E028
:100EA000406A029908403080B61CEEE7022090E7C5
:100EB000FF010000FFB5064604468036706883B027
:100EC0000D46202860D1002D0CD00598002809D0AF
:100ED0000120A1680003814207D12069002804D1C4
:100EE000E80702D0012007B0F0BD307801284BD0D0
:100EF000012030700020F06021207060FFF74EFA72
:100F00000190274640370598B8820598F88201205D
:100F1000A1680003814202D12069002804D0029513
:100F200000250020307015E000200290F9E7002233
:100F30008021204600F02CFA002818D102980028C1
:100F400017D02168007888620298401C0290F88AC5
:100F5000401EF882F88A019B002806980090E6D18E
:100F600000224021204600F013FA002808D0032078
:100F7000B9E728882168C005C00D8862AD1CE6E786
:100F8000202070600020AEE70220ACE7FEE7FEE71D
:100F90007047704710B5FFF707FA10BD10B5A0B045
:100FA00038216846FFF7EFF800241B941C941D9429
:100FB00034210EA81E94FFF7E6F801204002FFF747
:100FC00051FA02200090C001039040200590049443
:100FD00007946846FFF762FC002801D072B6FEE76E
:100FE00007201B901C941D9400211E941BA8FFF742
:100FF0004FFB002801D072B6FEE701200E900F943F
:101000000EA8FFF755FA002801D072B6FEE720B00F
:1010100010BD000001200249C00688607047000032
:1010200000ED00E010B5018DC90707D001684A68DE
:1010300001235B049A43C36A1A434A60018D8907FE
:1010400007D501684A6801231B049A43036B1A43BE
:101050004A60018D490707D501684A6801239B044E
:101060009A43436B1A434A60018D090707D501680B
:101070004A680123DB039A43836B1A434A60018D5C
:10108000C90607D50268916801231B039943C36B06
:1010900019439160018D890607D501688A6801238B
:1010A0005B039A43036C1A438A60018D490612D58B
:1010B00003685A6801210905446C8A4322435A6037
:1010C000426C8A4207D10268516803235B05994349
:1010D000836C19435160018D090607D501684A6880
:1010E0000123DB04C06C9A4302434A6010BD000038
:1010F000FEB50546002680350446EE60FFF74EF942
:10110000019020680068124F000709D5012100975F
:10111000002249052046019B00F03AF900280DD134
:101120002068006840070BD501210097002289053F
:101130002046019B00F02CF9002801D00320FEBDC1
:1011400020206860A860E6662E700020FEBD0000CA
:10115000FFFFFF01F8B504462269A168E569114364
:10116000626900262A431143626E00680A437C4B81
:1011700001687C4D294011430160206841680322C9
:1011800012039143E268114341602168A0699942CA
:1011900001D0226A10438A68734D2A4002438A6054
:1011A0002068C16A626A090909011143C1626F4975
:1011B00022686F488A420AD140698007800F1AD09E
:1011C00001283DD0022839D0032827D124E06949DD
:1011D0008A420AD140690C2108400CD004282FD043
:1011E00008282BD00C2819D116E063498A4202D076
:1011F00062498A4201D1002111E09A420ED141692F
:101200000320800201400AD001208002091A17D071
:10121000091A13D0814201D1082100E010210120D8
:10122000574D584FC0039A423BD100290AD002299A
:1012300011D0042909D008297ED10BE00221EEE764
:101240000421ECE7FFF7D0FA01E0FFF7E1FA05002F
:1012500001D17AE00546606A4000395A284600917B
:10126000FEF744FF676879007918814269D839032D
:10127000814266D3002328461946009AFEF74CFFA8
:10128000020E090203027808114318180022514186
:101290003A460023FEF740FF03210902411A3A4A69
:1012A0004DE0E269824228D1002906D0022907D008
:1012B000042907D0082944D108E0FFF795FA03E094
:1012C000284603E0FFF7A4FA00283ED0616A4900EF
:1012D000795AFEF70BFF616840004A088018FEF754
:1012E00005FF80B202462949103A8A4229D8491C92
:1012F00001400007400F084325E0002906D00229DD
:1013000007D0042907D008291BD108E0FFF76CFAA1
:1013100003E0284603E0FFF77BFA002815D0616A56
:101320004900795AFEF7E2FE61684A088018FEF724
:10133000DDFE80B2014600E003E0144A103991421C
:1013400001D9012601E02168C86020460121403012
:10135000418501850020206760673046F8BD0000A8
:1013600000800040F369FFCFFFF4FF110038014017
:10137000401002400044004000480040004C004043
:101380000024F40084160008FFFC0F00EFFF0000AB
:10139000FFB581B005460F46044680350A9E38E009
:1013A000701C36D0FEF7FAFF0499401AB04221D8DB
:1013B000002E1FD02068016849072AD5C069C043A4
:1013C000000526D401202168C00208622068016857
:1013D000FF22A132914301602068816849084900D9
:1013E000816020206860A860E860002028700320E9
:1013F00005B0F0BD20680168FF22A1329143016071
:101400002068816849084900816020206860A860E0
:10141000EBE72068C1693846884305D0002103986E
:101420008142BDD00020E3E70121F8E78307FF22D6
:10143000DB0E9A408907090E9940002808DB8308D3
:1014400009489B001B1818689043084318607047B0
:101450000007000F0838830804489B001B18D86950
:1014600090430843D861704700E400E000ED00E0DD
:1014700002E008C8121F08C1002AFAD1704770475D
:10148000002001E001C1121F002AFBD170470000BB
:1014900010B5012149030748FEF774FF06490028EB
:1014A00005D00868012802D00020086010BD012086
:1014B000086010BD000800501000002000B587B083
:1014C00014216846FEF75FFE0948426B04210A4377
:1014D0004263406B08400590C802009000200190D4
:1014E000029069460348FEF79FFE07B000BD00006A
:1014F000001002400008005030B587B01421684643
:10150000FEF741FE0D48416B012421434163406BCE
:10151000052520402D070590002220212846FEF7B2
:1015200036FF202000900020029001946946039429
:101530002846FEF779FE07B030BD000000100240DB
:1015400010B50520002220210007FEF720FF10BD66
:1015500010B50520012220210007FEF718FF10BD5D
:10156000FFF7CAFF00F028F8FFF7A8FFFEF724FFF7
:10157000FFF714FDFF24F53409E0FFF7E9FF2046EB
:10158000FEF740FEFFF7DCFF2046FEF73BFEFFF7CD
:101590007FFF0028F1D0FFF7DBFF00F063F800F0D9
:1015A00051F801E0FFF7D4FF00F04CF8044600F0DA
:1015B00059F88442F8D1F5E7F0B51E4887B0426B80
:1015C00004210A434263406B0840059019484030AB
:1015D000026809030A43026000680225084005907A
:1015E0001020009000240126019502AA124F70C21B
:1015F00069463846FEF718FE20200090019502AAA1
:1016000070C269463846FEF70FFE0D480B4901606F
:101610008460E121C4604902046141608461C46165
:10162000046244620C2184624161FFF751FB07B000
:10163000F0BD0000001002400008005000380140DA
:101640001800002010B5044B012204490448FFF79C
:10165000A7FB012010BD000088130000150000202A
:101660001800002010B5044B012204490448FFF77C
:1016700021FC012010BD0000881300001400002090
:1016800018000020010002000400060008000A0003
:101690000C0010002000400080000001000000004D
:1016A000000000000000000000000000000000003A
:1016B0000000000000000000000000000100000029
:1016C000020000000300000004000000060000000B
:1016D00007000000080000000900000000000000F2
:1016E00000000000000000000000000001000000F9
:1016F0000200000003000000040000001C170008A6
:1017000000000020180000007014000834170008C2
:101710001800002090040000801400080100000060
:1017200004000000000000000024F400000000009D
:0417300001000000B4
:04000005080000BD32
:00000001FF
