:020000040800F2
:10000000A8040020D1000008E9130008211300080B
:1000100000000000000000000000000000000000E0
:10002000000000000000000000000000ED130008C8
:100030000000000000000000EB130008EF130008B0
:10004000E3000008E3000008E3000008E300000804
:10005000E3000008E3000008E3000008E3000008F4
:10006000E3000008E3000008E3000008E3000008E4
:10007000E3000008E3000008E3000008E3000008D4
:10008000E3000008E3000008E3000008E3000008C4
:10009000E3000008E3000008E3000008E3000008B4
:1000A000E3000008E3000008E3000008A51E0008C4
:1000B000E3000008E3000008E30000080348854669
:1000C00000F08EF800480047191F0008A80400201F
:1000D0000448804704480047FEE7FEE7FEE7FEE7E6
:1000E000FEE7FEE765140008BD00000830B50B46CA
:1000F000014600202022012409E00D46D5409D4202
:1001000005D31D469540491B254695404019154687
:10011000521E002DF1DC30BDF0B51FB406460020A4
:1001200082B005464024019100901BE001992246CF
:100130000F46304600F042F8049A059B801A994118
:1001400010D310461946224600F028F8361A8F417F
:100150000197224601200021009F00F01FF8381867
:100160004D4100902046641E0028DFDC019B009872
:100170002946324607B0F0BDD2B201E00270401C01
:10018000491EFBD270470022F6E710B513460A4617
:1001900004461946FFF7F0FF204610BD10B5202A8F
:1001A00004DB0146203A9140002010BD91402023FD
:1001B0009C1A0346E3401943904010BD10B5202A15
:1001C00004DB0846203AD040002110BD0B46D34046
:1001D000D0402024A21A91400843194610BD0000C7
:1001E000064C0125064E05E0E36807CC2B430C3C8A
:1001F00098471034B442F7D3FFF764FF1C2000087F
:100200003C20000872B605242407FF25F53520217F
:10021000204600F042F9284600F07AF8F7E700009F
:10022000F0B5002808D0014620314A79022A05D0CD
:100230000422C263002008710120F0BD0268136827
:100240000E24A3431360426C1468FF2301339C43C4
:100250001460026814686408640014600C4A5568ED
:10026000066C1C24264001242746B7403D435560B8
:10027000826CC56C5560026D002A05D015689D43DF
:100280001560826D406D42604C7100200871F0BDB8
:1002900000000240F8B500240246203251790229BC
:1002A00003D00421C16301242DE001680B680E25F1
:1002B000AB430B6001680B685B085B000B60416C33
:1002C0000B68FF250135AB430B6010494D68066C88
:1002D0001C231E4001231F46B7403D434D60816CE7
:1002E000C56C4D60016D002906D00E681D02AE433D
:1002F0000E60416D856D4D60537100211171816BF0
:10030000002900D088472046F8BD000000000240C8
:1003100070B5044600F0D0F80546601C02D00448D1
:100320000078241800F0C8F8401BA042FAD370BD32
:1003300004000020FCB5002301259AE022462C464B
:100340009C4022406FD04E68012E05D0022E03D073
:10035000112E01D0122E16D186680327B4465E00F6
:10036000B646B7406646BE43B446CF687646B74009
:100370006646374387604668A6430C79E406E40F77
:100380009C4034434460C6685F000324BC40A446DC
:10039000A6438C68BC403443C4604C68022C01D036
:1003A000122C14D1DC08A40024180194266A5C07DE
:1003B000B646E60E0F24B44000967646A643B646EF
:1003C0000C69009EB44076462643019C2662046870
:1003D0006646B4430E79B607B60FBE4026430660A4
:1003E0004C68E40044D59E08254CB6003419A44658
:1003F000246E9E07F60E0F27B740BC4305273F0724
:10040000B84201D1002710E01E4FB84201D10127A8
:100410000BE01D4FB84201D1022706E01B4FB84246
:1004200002D1032701E023E00527B74027436446B4
:100430002766134E803634684F689443FF0300D517
:100440001443346074684F689443BF0300D5144369
:1004500074600B4C26684F689643FF0200D5164324
:10046000266066684F689643BF0200D516436660F3
:100470005B1C0A681446DA4000D05FE7FCBD000050
:10048000001802400004005000080050000C00500A
:100490000069084000D001207047426913460B40B4
:1004A0001B0491430B4383617047002A01D0816193
:1004B0007047816270470000014880687047000003
:1004C0000400002002488168027889188160704722
:1004D0000400002010B5084800240168821511436B
:1004E0000160204600F00AF8002801D0012401E054
:1004F00000F028F8204610BD0020024070B50F4ED5
:10050000002431780546002915D07D20C000FFF772
:10051000EDFD01460A480068FFF7E8FD00F05AFCCF
:10052000002808D1042D06D200222946401E00F0E2
:100530002FF8756000E00124204670BD0400002003
:100540001000002008B50B4801680122114301602A
:1005500000681040009007484038C26B01040A430D
:10056000C263C06B084000900320400200F028FCEA
:1005700008BD000040100240002805DBC106C90E7E
:1005800001208840014908607047000000E100E058
:1005900010B501F08FFC10BD10B50F4C216803227F
:1005A0005202914301432160C11FFF39FA390ED134
:1005B0000A480621006848430949FFF797FD401C97
:1005C00002E0002805D0401E61694905F9D40020E9
:1005D00010BD032010BD000000700040100000207E
:1005E00040420F00FEB5044600680027704D714E72
:1005F000800355D500200090F06BC00007D4F16B4C
:10060000A8050143F163F16B0140012000906A48A5
:100610000168821511430160FFF74EFF019005E06C
:10062000FFF74AFF0199401A022825D8624800685E
:10063000C005F5D5E8690321090208400FD0216BF8
:1006400081420CD0E86903210902EA69884301214B
:1006500009040A43EA61EA698A43EA61E861C0077A
:100660000FD0FFF729FF019008E0FFF725FF019960
:10067000411A5248814201D9032709E0E8698007FD
:10068000F3D5E869032109028843216B0843E86137
:100690000098002804D0F16B012000078143F1632A
:1006A0002078C00705D06869616880088000084329
:1006B00068612078800705D568690C218843A168A6
:1006C000084368612078C00606D56869032189025D
:1006D0008843E168084368612088800506D5686919
:1006E000032189048843A169084368612088400583
:1006F00006D56869032109058843E16908436861F3
:100700002078800606D5686903210903884321699A
:1007100008436861208840040ED56869216A80001A
:100720008008084368610121206A8907884203D153
:10073000F06889130843F0602068000305D56869F4
:1007400040218843616A08436861206881021C482F
:100750000BD569698210A36A914319436961A16A43
:10076000914202D1F1680143F160216849020AD542
:100770006969E26A814311436961E16A814202D198
:10078000F1680143F160208800050FD568690321F5
:1007900089038843616908436861012160698903AD
:1007A000884203D1F06889000843F0603846FEBDF6
:1007B000401002400010024000700040881300000A
:1007C00000000001F8B50F46060043D04D4D2868E3
:1007D0004007400FB84213D22868C008C000384311
:1007E0002860FFF769FE044605E0FFF765FE011B80
:1007F0004548814261D828684007400FB842F4D18B
:100800003068424C81070DD5400704D5A068072108
:1008100009030843A060A0680F2109028843B1685A
:100820000843A0603078C00732D0706801280AD031
:1008300002280BD000280FD03449403103280ED0B5
:10084000C969890704E02168890301E021688901F9
:10085000002906DB0120F8BD21684905F8E7096A8F
:10086000EFE7A168C908C9000143A160FFF724FEB2
:10087000009006E0FFF720FE0099411A22488142CD
:100880001BD8A068382108407168C9008842F1D19E
:1008900028684007400FB84217D91A480168C908AC
:1008A000C90039430160FFF707FE054607E0FFF77F
:1008B00003FE411B1448814201D90320F8BD1148B1
:1008C00000684007400FB842F1D13078400706D5A4
:1008D000A068072109038843F1680843A06000F07D
:1008E00031F8A1683C2289091140094A515CC906C6
:1008F000C90EC8400749086007480068FFF7FEFDB9
:10090000F8BD0000002002408813000000100240E3
:10091000BC1F0008100000200800002006480749FE
:1009200000688968064A4904490F8900515CC90674
:10093000C90EC8407047000010000020001002409F
:10094000FC1F000810B5204CA068204A8006400F0C
:1009500016D0A0688006410F501001290FD0A16861
:100960008906490F022912D0A0688006400F04288A
:1009700023D0A0688006400F032821D0002010BD9E
:10098000206801218004400F8140104612E0E16898
:100990008B07E1689B0F4906490F491C032B00D0C8
:1009A0001046FFF7A3FBE1684904490E4843E1689C
:1009B000490F491CFFF79AFB10BD0120C00310BD71
:1009C0007D20000210BD0000001002400024F40051
:1009D000F8B504007ED020783827C007EF4D0028F6
:1009E00046D0A868E96838408907890F102802D0E6
:1009F00008280BD001E0032908D001206268000418
:100A000082420AD129680143296015E028688003E1
:100A10002ED560680028DDD02AE0052301211B04C3
:100A200089049A422A6802D10A432A60EAE782438B
:100A30002A60286888432860606800280CD0FFF787
:100A40003BFD064604E0FFF737FD801B642873D8A2
:100A500028688003F7D50BE0FFF72EFD064604E07B
:100A6000FFF72AFD801B6428F1D828688003F7D49B
:100A70002078800769D5A868E96838408A07072187
:100A8000920FC902102802D0002813D001E0022AD8
:100A900010D0E068002846D02868884321690843C0
:100AA00028602868FF21013108432860FFF704FD12
:100AB00006462CE02A68520502D5E268002A89D051
:100AC0006A687F231B029A4363691B021A436A60A8
:100AD000002800E08DE00ED1286888432169084392
:100AE0002860286801218004400F8140AC48FFF74E
:100AF000FDFAAC490860AC480068FFF7FFFC00282D
:100B000077D122E0FFF7D8FC801B02289FD8286805
:100B10004005F7D568687F210902884361690902A9
:100B20000843686011E02968FF2001308143296093
:100B3000FFF7C2FC064605E098E0FFF7BDFC801B0E
:100B4000022884D828684005F7D42078974E0007FB
:100B50002ED5A8688006400F03280AD0A069002877
:100B6000306A16D0012108433062FFF7A5FC074622
:100B70000BE0306A80071BD5A06900289FD017E0E2
:100B8000FFF79AFCC01B022870D8306A8007F7D59F
:100B90000EE0400840003062FFF78EFC074604E09C
:100BA000FFF78AFCC01B022860D8306A8007F7D4A0
:100BB000207840076CD5A86800278006400F0428DD
:100BC00018D0E86BC00008D4E96B0120000701438E
:100BD000E963E96B01400127009175480168C90587
:100BE00019D40168821511430160FFF765FC00907C
:100BF0000DE083E0F06980074AD5A06800287DD029
:100C000046E0FFF759FC0099401A02282ED86848A0
:100C10000068C005F5D5A168012910D00420052978
:100C2000F16911D049084900F161F1698143F1612D
:100C3000A068002816D0FFF73FFC00900EE0F06996
:100C400001210843F061F3E70143F161F7E7FFF7A2
:100C500033FC0099411A574881426FD8F0698007E8
:100C6000F5D50EE0FFF728FC009007E066E0FFF7FF
:100C700023FC0099411A4F4881425FD8F0698007F0
:100C8000F5D4002F04D0E86B012109078843E863FD
:100C9000E06900287FD0A9688906490F022953D04E
:100CA00001263606022828680DD0B0432860E8687F
:100CB00080088000E860E8683F490840E860FFF786
:100CC000FBFB04463CE0B0432860FFF7F5FB07461A
:100CD00004E0FFF7F1FBC01B02282FD82868800131
:100CE000F7D4616A206AA26A0843E16A12021143DA
:100CF0000843216B0843616B084300E049E0E96861
:100D00002E4A11400843E860286830432860E868AC
:100D1000012109070843E860FFF7CEFB044604E021
:100D2000FFF7CAFB001B022808D828688001F7D506
:100D300031E0FFF7C1FB001B022801D90320F8BDF9
:100D400028688001F5D426E00128F8D0E868226AF6
:100D50008107890F91421CD17021626A0140914242
:100D600017D17F21A26A090201401202914210D1DB
:100D70001F214904E26A014091420AD10721490634
:100D8000226B0140914204D1400F616B40078842C1
:100D900001D00120F8BD0020F8BD00000010024085
:100DA0000024F40010000020080000204010024041
:100DB0000070004088130000FFFFFEEE8C80C11120
:100DC00003490A6803235B029A4302430A6070479F
:100DD00000000140094910B5401E884201D9012098
:100DE00010BD074C60610321081F01F063F800206B
:100DF000A06107202061002010BD0000FFFFFF0060
:100E000000E000E010B5014680310A78012A15D0D3
:100E100001220A7024224A60026813681468640878
:100E20006400146001225207934300224266006866
:100E30000360202048600A70104610BD022010BDDB
:100E40007047704770B50446054680342078012805
:100E50001AD001202070242060602868066802688B
:100E60005208520002602868826807235B069A4392
:100E70000A438260284600F0FDFA286806602020B8
:100E800060600020207070BD022070BD70B5044607
:100E9000054680342078012819D0012020702420B4
:100EA000606028680668026852085200026028687C
:100EB0008268D200D2080A438260284600F0DAFA3B
:100EC00028680660202060600020207070BD02202D
:100ED00070BD704770477047F8B503680446D9691C
:100EE00018689A68914D0E462E4025468035002E92
:100EF0006CD08F4E8F4F1640074037437FD0CF07BF
:100F000006D0C70504D501271F62EB683B43EB60A1
:100F10008B0708D5D30706D0276802233B62EB680E
:100F200004273B43EB604B0708D5D30706D027685F
:100F300004233B62EB6802273B43EB600B0709D5B8
:100F400020230340334305D0266808233362EE682C
:100F50001E43EE600B0509D5430107D50123266822
:100F6000DB023362EB6820263343EB60EB68002B37
:100F70003AD089060AD520210840C9050A40104305
:100F800004D0216F002901D020468847E8682168F5
:100F90008968490602D4282108422AD0204600F058
:100FA0003BFB2068816849061FD5826840218A433F
:100FB0008260E06F002818D05F498163E06FFFF71F
:100FC00069F9002810D0E06F816B0CE08E0616D511
:100FD000012720263F07064017403E430FD0216FD0
:100FE0007FE00CE020468847F8BD2046FFF773FFFE
:100FF000F8BD2046FFF76FFF0020E860F8BDE66E01
:10100000012E59D1CE0657D5C60655D510221A62E3
:101010002068816826464906403600292BDAE36FAE
:10102000196849680904090CE8D0B78B8F42E5D9E3
:10103000F18319680968890618D401681301994376
:1010400001602068816849084900816020688168E2
:101050004023994381602020A8600020E06620683A
:10106000016891430160E06FFFF7DAF8B08BF18B14
:10107000401A81B21CE0B18BF38BC91AF38B89B291
:10108000002BBBD00029B9D00368FF262136B3431B
:10109000036020688368264EF64333408360202037
:1010A000A8600020E066206720680368934303601F
:1010B0002046FFF7C5FEF8BDCE0208D5560206D57C
:1010C0000120000518622046FFF704FFF8BD0E0658
:1010D0000BD501278026FF0506403A40164304D071
:1010E000616F002900D07DE7F8BD4A060DD54206A4
:1010F0000BD51A68204640218A431A602021696076
:101100000021616700F006F9F8BD0A0205D542002A
:1011100003D52046FFF7DDFEF8BDC901FCD5002848
:10112000FADA2046FFF78DFEF8BD00000F08000038
:1011300001000010200100040516000870B504002D
:1011400005D0254680356868002802D006E00120D9
:1011500070BD00202870204600F026F8242068602A
:1011600020680168490849000160204600F028FC19
:101170000128EDD0A06A002802D0204600F0AAF98C
:10118000206841680922D202914341602068816849
:101190002A22914381602068016801221143016085
:1011A000204600F0FDF970BD10B586B0044614214C
:1011B0006846FEF7E8FF16492068884226D11548A0
:1011C0000268012189030A43026000680840059013
:1011D00010484038426B04210A434263406B084088
:1011E0000590302000900220019000200290039092
:1011F0000120049069460848FFF79CF80022114638
:101200001B20FFF7C5F91B20FFF7B6F906B010BD8C
:1012100000380140401002400008005030B503463D
:1012200080339C68202C19D100290BD0002A09D0CA
:10123000012584682D03AC4206D10469002C03D13A
:10124000CC0701D0012030BD1C78012C06D0012430
:101250001C700023C36600F0D1FC30BD022030BDFD
:1012600001490120087070470000002070B5034656
:1012700080335C68202C43D100290AD0002A08D092
:101280008568E401A54206D10669002E03D1CE0788
:1012900001D0012070BD1E78012E31D001261E70B4
:1012A0000165014640318A82CA8200214167D960C6
:1012B00021225A60426E7607B24210D1A54202D175
:1012C0000269002A09D00F4A4267197000688168D4
:1012D0000122D205114381600EE00B4AF4E7A542DA
:1012E00002D10269002A09D0084A426719700068D1
:1012F0000168802211430160002070BD044AF4E7B8
:10130000022070BDB51D00081F1D0008771D0008D4
:10131000DD1C000801490120087070470000002012
:10132000FEE7000070B586B014216846FEF72BFF7B
:101330001448426B04210A434263426B0A400592FF
:10134000416B012421434163406B05262040360751
:101350000590002220213046FFF7A7F86003002502
:1013600000900195694602950748FEF7E3FF2020AB
:10137000694631C1694630460394FEF7DBFF06B08B
:1013800070BD0000001002400008005010B5154864
:1013900013490160E1214902416000218160C1607F
:1013A00001618161C16101620C224162426181621D
:1013B000FFF7C4FE002810D100210A48FFF766FDA0
:1013C00000280AD100210748FFF73CFD002804D17E
:1013D0000448FFF717FD002801D0FEF713FF10BDEA
:1013E0000038014014000020FEE77047704710B538
:1013F000FFF768F810BD10B5A0B038216846FEF7B9
:10140000C2FE00241B941C941D9434210EA81E942B
:10141000FEF7B9FE01204002FFF7BEF8022000905F
:10142000C001039040200590049407946846FFF79C
:10143000CFFA002812D107201B901C941D94002184
:101440001E941BA8FFF7BEF9002807D101200E90BB
:101450000F940EA8FFF7C6F8002801D0FEF7D2FEC1
:1014600020B010BD01200249C0068860704700000E
:1014700000ED00E0F0B513A106C985B0019200911E
:1014800012A206CA039202910446416E403400291A
:1014900015D000688168806809014D0F400F02AEC9
:1014A000315C6F46385CC000FEF720FE6085785DD9
:1014B000715DC000FEF71AFE208505B0F0BD012069
:1014C0006085F9E701010103070100000804020437
:1014D0000801010110B5018DC90707D001684A68EC
:1014E00001235B049A43C36A1A434A60018D89074A
:1014F00007D501684A6801231B049A43036B1A430A
:101500004A60018D490707D501684A6801239B0499
:101510009A43436B1A434A60018D090707D5016856
:101520004A680123DB039A43836B1A434A60018DA7
:10153000C90607D50268916801231B039943C36B51
:1015400019439160018D890607D501688A680123D6
:101550005B039A43036C1A438A60018D490612D5D6
:1015600003685A6801210905446C8A4322435A6082
:10157000426C8A4207D10268516803235B05994394
:10158000836C19435160018D090607D501684A68CB
:101590000123DB04C06C9A4302434A6010BD000083
:1015A000FEB50546002680350446EE60FEF784FF52
:1015B000019020680068124F000709D501210097AB
:1015C000002249052046019B00F01EFC00280DD199
:1015D0002068006840070BD501210097002289058B
:1015E0002046019B00F010FC002801D00320FEBD26
:1015F00020206860A860E6662E700020FEBD000016
:10160000FFFFFF0110B5806A002201464031CA8306
:10161000CA82FFF760FC10BD01680A68FF2321330E
:101620009A430A6001688A68084B1A408A60C16E52
:10163000012904D101680A6810239A430A60202214
:1016400088210A500021C16601677047FEFFFFEF45
:1016500070B50446403021468031038C8D68226885
:10166000222D04D0906908210843906170BD526A10
:10167000A56D1A402A80A26D921CA265C28B521ED3
:10168000C283C28B002AF1D122681368FF2521355D
:10169000AB431360226893685B085B009360202271
:1016A0008A6000252567E16E012904D02046FFF7F6
:1016B000D7FDE56670BD21680A6810239A430A6069
:1016C000818B2046FFF7BCFBF3E70000F0B5054631
:1016D0000446403589B0288C02902068C6690168AC
:1016E0000691816804912146803100918968222900
:1016F00005D0816908221143816109B0F0BD2F8DA9
:101700005CE02068406A029AA16D10400880A06DDC
:10171000801CA065E88B401EE8832068C6697107BD
:1017200031D0F10709D00699C90506D5012101621A
:101730000098C06808430099C860B0070BD50498AA
:10174000C00708D02168022008620098C068042100
:1017500008430099C86070070BD50498C00708D0EB
:101760002168042008620098C0680221084300999B
:10177000C8600098C068002805D02046FFF7ABFB82
:1017800000990020C860E88B002817D12068016804
:10179000FF2201329143016020688168184A11409C
:1017A000816000992020886000202067E06E012879
:1017B0001CD02046FFF754FD0020E066002F01D02A
:1017C000B0069ED4E88B002897D0298D814294D909
:1017D00020688168012212079143816009482067CF
:1017E0002068016820221143016086E720680168B3
:1017F000102291430160A98B2046FFF721FBDBE714
:10180000FEFFFFEF5116000870B504464030224637
:101810008032038C95682168222D04D088690822C3
:101820001043886170BD496A1940A36D1970A16D9C
:10183000491CA165C18B491EC183C18B0029F1D10F
:1018400021680B68FF252135AB430B6021688B684D
:101850005B085B008B602021916000252567E16EAD
:10186000012904D02046FFF7FBFCE56670BD216826
:101870000A6810239A430A60818B2046FFF7E0FA3A
:10188000F3E70000F0B505460446403589B0288CE2
:1018900001902068C669016806918168049121461B
:1018A000803102918968222905D08169082211437B
:1018B000816109B0F0BD2F8D5CE02068406A01991C
:1018C0000840A16D0870A06D401CA065E88B401E0B
:1018D000E8832068C669710731D0F10709D00699FD
:1018E000C90506D5012101620298C0680843029922
:1018F000C860B0070BD50498C00708D02168022043
:1019000008620298C068042108430299C860700701
:101910000BD50498C00708D02168042008620298FB
:10192000C068022108430299C8600298C068002874
:1019300005D02046FFF7CFFA02980021C160E88B5E
:10194000002817D120680168FF220132914301600D
:1019500020688168184A11408160029920208860BF
:1019600000202067E06E01281CD02046FFF778FC9D
:101970000020E066002F01D0B0069ED4E88B00283E
:1019800097D0298D814294D920688168012212075D
:101990009143816009482067206801682022114333
:1019A000016086E720680168102291430160A98BDD
:1019B0002046FFF745FADBE7FEFFFFEF09180008B6
:1019C000F8B504462269A168E569114362690026F9
:1019D0002A431143626E00680A437C4B01687C4DC8
:1019E000294011430160206841680322120391439A
:1019F000E268114341602168A069994201D0226ADE
:101A000010438A68734D2A4002438A602068C16A85
:101A1000626A090909011143C1626F4922686F486E
:101A20008A420AD140698007800F1AD001283DD030
:101A3000022839D0032827D124E069498A420AD1F3
:101A400040690C2108400CD004282FD008282BD046
:101A50000C2819D116E063498A4202D062498A42B1
:101A600001D1002111E09A420ED141690320800288
:101A700001400AD001208002091A17D0091A13D098
:101A8000814201D1082100E010210120574D584F1B
:101A9000C0039A423BD100290AD0022911D004295F
:101AA00009D008297ED10BE00221EEE70421ECE702
:101AB000FEF734FF01E0FEF745FF050001D17AE0B3
:101AC0000546606A4000395A28460091FEF70EFB31
:101AD000676879007918814269D83903814266D3F1
:101AE000002328461946009AFEF716FB020E09024B
:101AF0000302780811431818002251413A46002386
:101B0000FEF70AFB03210902411A3A4A4DE0E26955
:101B1000824228D1002906D0022907D0042907D003
:101B2000082944D108E0FEF7F9FE03E0284603E067
:101B3000FEF708FF00283ED0616A4900795AFEF797
:101B4000D5FA616840004A088018FEF7CFFA80B2E3
:101B500002462949103A8A4229D8491C0140000707
:101B6000400F084325E0002906D0022907D00429A8
:101B700007D008291BD108E0FEF7D0FE03E0284675
:101B800003E0FEF7DFFE002815D0616A4900795AAC
:101B9000FEF7ACFA61684A088018FEF7A7FA80B22F
:101BA000014600E003E0144A1039914201D90126B0
:101BB00001E02168C860204601214030418501854F
:101BC0000020206760673046F8BD000000800040BC
:101BD000F369FFCFFFF4FF110038014040100240CD
:101BE0000044004000480040004C00400024F40045
:101BF000A41F0008FFFC0F00EFFF0000F0B5816597
:101C0000014640318A83CA83002303670125846823
:101C10002D03FF26AC4204D10469002C13D12A4CB9
:101C20000AE07F27002C09D001263607B4420CD1E8
:101C30000469002C05D03F240C8407E00469002CC3
:101C400001D00F8402E00E8400E00B84044680344F
:101C5000E3602226A6600768BE68BC4601273E43B3
:101C60006746BE600127466E7F07BE4219D1098DC7
:101C7000914216D88168A94202D1016900290ED08B
:101C800012490167237001680A68FF2301331A4370
:101C90000A60006881681A051143816010E00C49F0
:101CA000EFE78168A94202D1016900290AD00949F8
:101CB0000167237000680168FF222132114301602F
:101CC0000020F0BD0449F3E7FF010000851800087B
:101CD000CD1600080918000851160008842109587B
:101CE000212910D101464031CA8A002A0CD0026D48
:101CF00003681288D205D20D9A62026D921C0265A9
:101D0000C88A401EC882704701680A6880239A43C7
:101D10000A6000680168402211430160704710B5F5
:101D200084210958212919D102464032518D13E0EE
:101D3000D38A002B13D00368DC6924060AD5046D0E
:101D40002488E405E40D9C62036D9B1C0365D38A23
:101D50005B1ED382491E89B20029E9D110BD0168FA
:101D60008B680122D20593438B6000680168402292
:101D70001143016010BD8421095821290ED101466B
:101D80004031CA8A002A0AD0026D036812789A622A
:101D9000026D521C0265C88A401EC88270470168E5
:101DA0000A6880239A430A60006801684022114350
:101DB0000160704710B584210958212917D10246C6
:101DC0004032518D11E0D38A002B11D00368DC69B9
:101DD000240608D5046D24789C62036D5B1C0365A2
:101DE000D38A5B1ED382491E89B20029EBD110BD74
:101DF00001688A680123DB059A438A6000680168EC
:101E000040221143016010BDFFB581B005460F4669
:101E1000044680350A9E38E0701C36D0FEF74CFB35
:101E20000499401AB04221D8002E1FD020680168C2
:101E300049072AD5C069C043000526D4012021687E
:101E4000C002086220680168FF22A132914301604C
:101E50002068816849084900816020206860A86086
:101E6000E86000202870032005B0F0BD20680168FC
:101E7000FF22A1329143016020688168490849002E
:101E8000816020206860A860EBE72068C16938465F
:101E9000884305D0002103988142BDD00020E3E7AC
:101EA0000121F8E710B50248FFF716F810BD000051
:101EB000140000208307FF22DB0E9A408907090ED9
:101EC0009940002808DB830809489B001B18186804
:101ED00090430843186070470007000F08388308D4
:101EE00004489B001B18D86990430843D861704789
:101EF00000E400E000ED00E002E008C8121F08C1A5
:101F0000002AFAD170477047002001E001C1121F7A
:101F1000002AFBD170470000FEF7DCFAFFF76BFAEE
:101F2000FFF700FAFFF732FA0526FF243607F534EB
:101F300001256D03184F06E020213046FEF7ADFA6B
:101F40002046FEF7E5F929463846FEF7A1FA0128B2
:101F5000F2D0012211491248FFF788F900280ED16A
:101F60000E4C641E20780128FCD1002525700B49F9
:101F70000122491C0A48FFF751F9002801D0FEF759
:101F800041F920780128FCD125700122202130461A
:101F9000FEF78BFAFEE70000000800500100002069
:101FA00014000020010002000400060008000A00DE
:101FB0000C00100020004000800000010000000024
:101FC0000000000000000000000000000000000011
:101FD0000000000000000000000000000100000000
:101FE00002000000030000000400000006000000E2
:101FF00007000000080000000900000000000000C9
:1020000000000000000000000000000001000000CF
:102010000200000003000000040000003C20000853
:102020000000002014000000F81E000850200008E6
:102030001400002094040000081F000800010000A4
:102040000100000004000000000000000024F40073
:04000005080000BD32
:00000001FF
