:020000040800F2
:10000000D006002089010008910100089301000832
:100010009501000897010008990100080000000000
:100020000000000000000000000000009B0100082C
:100030009D010008000000009F010008A1010008C8
:10004000A3010008A3010008A3010008A301000800
:10005000A3010008A3010008A3010008A3010008F0
:10006000A3010008A3010008A3010008A3010008E0
:10007000A3010008A3010008A3010008A3010008D0
:10008000A3010008A3010008A3010008A3010008C0
:10009000A3010008A3010008A3010008A3010008B0
:1000A000A3010008A3010008A3010008A3010008A0
:1000B000A3010008A301000800000000A30100083C
:1000C000A30100080000000000000000A3010008D8
:1000D00000000000A3010008A301000800000000C8
:1000E000A3010008A3010008A301000800F002F822
:1000F00000F03AF80AA090E8000C82448344AAF188
:100100000107DA4501D100F02FF8AFF2090EBAE885
:100110000F0013F0010F18BFFB1A43F0010318473B
:100120000006000020060000103A24BF78C878C1FD
:10013000FAD8520724BF30C830C144BF04680C60ED
:10014000704700000023002400250026103A28BF35
:1001500078C1FBD8520728BF30C148BF0B60704739
:100160001FB51FBD10B510BD00F031F81146FFF7E7
:10017000F7FF00F0D3F900F04FF803B4FFF7F2FFF8
:1001800003BC00F059F800000948804709480047BF
:10019000FEE7FEE7FEE7FEE7FEE7FEE7FEE7FEE737
:1001A000FEE7FEE704480549054A064B7047000094
:1001B00065040008ED000008D0000020D0060020F3
:1001C000D0020020D002002070477047704775466B
:1001D00000F02CF8AE4605006946534620F00700B3
:1001E000854618B020B5FFF7DDFFBDE820404FF091
:1001F00000064FF000074FF000084FF0000B21F011
:100200000701AC46ACE8C009ACE8C009ACE8C009DD
:10021000ACE8C0098D46704710B50446AFF30080C6
:100220002046BDE81040FFF7A8BF00000048704717
:10023000700000207047000001491820ABBEFEE7A7
:10024000260002002DE9F04102460025002600208C
:1002500000230024002791F803C00CF00F0591F84B
:1002600003C00CF0100CBCF1000F03D091F802C0D9
:100270004CEA050591F800C0BCF1000F31D01468BC
:1002800000202BE04FF0010C0CFA00F3B1F800C095
:100290000CEA03069E4220D183004FF00F0C0CFAAB
:1002A00003F7BC4305FA03FC4CEA040491F803C0CD
:1002B000BCF1280F06D14FF0010C0CFA00FCC2F87B
:1002C00014C00AE091F803C0BCF1480F05D14FF00B
:1002D000010C0CFA00FCC2F810C0401C0828D1D355
:1002E0001460B1F800C0BCF1FF0F34DD5468002089
:1002F0002EE000F1080C4FF0010808FA0CF3B1F8F9
:1003000000C00CEA03069E4221D183004FF00F0C7F
:100310000CFA03F7BC4305FA03FC4CEA040491F819
:1003200003C0BCF1280F05D100F1080C08FA0CF845
:10033000C2F8148091F803C0BCF1480F07D100F156
:10034000080C4FF0010808FA0CF8C2F81080401CA5
:100350000828CED35460BDE8F081000029B1064AD8
:1003600092690243044B9A6104E0034A9269824312
:10037000014B9A61704700000010024010B500F078
:1003800001F810BD0CB500200190009033480068C2
:1003900040F480303149086000BF3048006800F404
:1003A000003000900198401C0190009818B9019805
:1003B000B0F5A06FF1D12948006800F4003010B109
:1003C0000120009001E0002000900098012843D116
:1003D0002348006840F01000214908600846006882
:1003E00020F0030008600846006840F00200086042
:1003F0001A484068194948600846406848600846FD
:10040000406840F4806048600846406820F47C10F2
:1004100048600846406840F4E810486008460068B4
:1004200040F08070086000BF0C48006800F0007069
:100430000028F9D00948406820F0030007494860C7
:100440000846406840F00200486000BF034840682A
:1004500000F00C000828F9D10CBD0000001002408B
:100460000020024010B51348006840F00100114917
:10047000086008464068104908400E494860084630
:1004800000680E4908400B4908600846006820F4DF
:10049000802008600846406820F4FE0048604FF461
:1004A0001F008860FFF76AFF4FF000600449086092
:1004B00010BD0000001002400000FFF8FFFFF6FE34
:1004C00008ED00E010B50446002307E0054850F8A9
:1004D0002300E060044800F01BF85B1C062BF5DBF2
:1004E00010BD000058000020C07A100030B504464E
:1004F0000D46002307E0054850F82300E060284639
:1005000000F006F85B1C0A2BF5DB30BD0000002074
:1005100000BF011EA0F10100FBD170471FB54020B4
:10052000202110220823CDE90032CDE90210042356
:10053000022201210F4800F0ADF81AE005210D4814
:1005400000F064F80C48FFF7E3FF6321094800F06E
:1005500015F80948FFF7DCFF0648FFF7B3FF064828
:10056000FFF7D6FF04490348FFF7C0FF0248FFF733
:10057000CFFFE3E70008014080EE3600412901D0BB
:10058000612903D11F4A1268C2603AE0422901D0B2
:10059000622903D11B4A5268C26032E0432901D06C
:1005A000632903D1174A9268C2602AE0442901D026
:1005B000642903D1134AD268C26022E0452901D0E0
:1005C000652903D10F4A1269C2601AE0462901D099
:1005D000662903D10B4A5269C26012E0472901D053
:1005E000672903D1074A9269C2600AE0482901D00D
:1005F000682903D1034AD269C26002E0024A126844
:10060000C2607047280000204800002019B91F4A26
:100610001268C26038E0012903D11C4A5268C260E6
:1006200032E0022903D1194A9268C2602CE0032902
:1006300003D1164AD268C26026E0042903D1134AC6
:100640001269C26020E0052903D1104A5269C260D4
:100650001AE0062903D10D4A9269C26014E0072905
:1006600003D10A4AD269C2600EE0082903D1074AC1
:10067000126AC26008E0092903D1044A526AC260C2
:1006800002E0034A1268C2607047000000000020C8
:10069000480000202DE9F84F04460D4616461F4637
:1006A000DDE90CABDDE90A891A48844204D1012155
:1006B0000420FFF753FE13E01748844204D10121C0
:1006C0000820FFF74BFE0BE01448844204D10121BF
:1006D0001020FFF743FE03E001212020FFF73EFE3C
:1006E00010208DF8030003208DF8020045EA060073
:1006F000384340EA080040EA090040EA0A0040EABC
:100700000B00ADF8000069462046FFF79BFDBDE8F1
:10071000F88F000000080140000C0140001001406B
:1007200040070008000000207000000028010008B9
:10073000B0070008700000206006000044010008B7
:100740003F000000060000005B0000004F000000BA
:10075000660000006D0000007C0000000700000043
:100760007F00000067000000770000007F000000AD
:10077000390000003F000000790000007100000017
:100780007D000000760000004000000049000000ED
:100790005C000000520000000100000002000000A8
:1007A000040000000800000010000000200000000D
:040000050800018965
:00000001FF
