:020000040800F2
:1000000080040020D1000008410E0008790D00088E
:1000100000000000000000000000000000000000E0
:100020000000000000000000000000000D100008AB
:100030000000000000000000430E00080F10000840
:10004000E3000008E3000008E3000008E300000804
:10005000E3000008E3000008E3000008E3000008F4
:10006000E3000008E3000008E3000008E3000008E4
:10007000E3000008E3000008E3000008E3000008D4
:10008000E3000008E3000008E3000008E3000008C4
:10009000E3000008E3000008E3000008E3000008B4
:1000A000E3000008E3000008E3000008E3000008A4
:1000B000E3000008E3000008E30000080348854669
:1000C00000F03CF800480047F910000880040020C8
:1000D0000448804704480047FEE7FEE7FEE7FEE7E6
:1000E000FEE7FEE785100008BD00000830B50B46AE
:1000F000014600202022012409E00D46D5409D4202
:1001000005D31D469540491B254695404019154687
:10011000521E002DF1DC30BDD2B201E00270401C55
:10012000491EFBD270470022F6E710B513460A4677
:1001300004461946FFF7F0FF204610BD064C012586
:10014000064E05E0E36807CC2B430C3C984710347F
:10015000B442F7D3FFF7B6FFD4110008F41100083A
:1001600070B5044600F0D0F80546601C02D0044883
:100170000078241800F0C8F8401BA042FAD370BDE4
:1001800008000020FCB5002301259AE022462C46F9
:100190009C4022406FD04E68012E05D0022E03D025
:1001A000112E01D0122E16D186680327B4465E00A8
:1001B000B646B7406646BE43B446CF687646B740BB
:1001C0006646374387604668A6430C79E406E40F29
:1001D0009C4034434460C6685F000324BC40A4468E
:1001E000A6438C68BC403443C4604C68022C01D0E8
:1001F000122C14D1DC08A40024180194266A5C0790
:10020000B646E60E0F24B44000967646A643B646A0
:100210000C69009EB44076462643019C2662046821
:100220006646B4430E79B607B60FBE402643066055
:100230004C68E40044D59E08254CB6003419A44609
:10024000246E9E07F60E0F27B740BC4305273F07D5
:10025000B84201D1002710E01E4FB84201D101275A
:100260000BE01D4FB84201D1022706E01B4FB842F8
:1002700002D1032701E023E00527B7402743644666
:100280002766134E803634684F689443FF0300D5C9
:100290001443346074684F689443BF0300D514431B
:1002A00074600B4C26684F689643FF0200D51643D6
:1002B000266066684F689643BF0200D516436660A5
:1002C0005B1C0A681446DA4000D05FE7FCBD000002
:1002D000001802400004005000080050000C0050BC
:1002E0000069084000D001207047426913460B4066
:1002F0001B0491430B4383617047002A01D0816145
:1003000070478162704700000148806870470000B4
:1003100008000020024881680278891881607047CF
:100320000800002010B50848002401688215114318
:100330000160204600F00AF8002801D0012401E005
:1003400000F028F8204610BD0020024070B50F4E86
:10035000002431780546002915D07D20C000FFF724
:10036000C5FE01460A480068FFF7C0FE00F0ECFC3D
:10037000002808D1042D06D200222946401E00F094
:1003800023F8756000E00124204670BD08000020BD
:100390001400002008B50B480168012211430160D8
:1003A00000681040009007484038C26B01040A43BF
:1003B000C263C06B084000900320400200F0BAFC0A
:1003C00008BD00004010024010B500F063FE10BDF3
:1003D00010B50F4C21680322520291430143216062
:1003E000C11FFF39FA390ED10A4806210068484377
:1003F0000949FFF77BFE401C02E0002805D0401EA3
:1004000061694905F9D4002010BD032010BD00002A
:10041000007000401400002040420F00F8B50F4665
:10042000060043D04D4D28684007400FB84213D214
:100430002868C008C00038432860FFF765FF0446FD
:1004400005E0FFF761FF011B4548814261D828683C
:100450004007400FB842F4D13068424C81070DD5B7
:10046000400704D5A068072109030843A060A068DD
:100470000F2109028843B1680843A0603078C007A3
:1004800032D0706801280AD002280BD000280FD083
:100490003449403103280ED0C969890704E0216836
:1004A000890301E021688901002906DB0120F8BDEC
:1004B00021684905F8E7096AEFE7A168C908C9009A
:1004C0000143A160FFF720FF009006E0FFF71CFF4B
:1004D0000099411A224881421BD8A068382108405F
:1004E0007168C9008842F1D128684007400FB842BE
:1004F00017D91A480168C908C90039430160FFF7D4
:1005000003FF054607E0FFF7FFFE411B1448814249
:1005100001D90320F8BD114800684007400FB842D8
:10052000F1D13078400706D5A06807210903884338
:10053000F1680843A06000F01DF8A1683C22890919
:100540001140094A515CC906C90EC84007490860F4
:1005500007480068FFF7FAFEF8BD000000200240DF
:1005600088130000001002409411000814000020BD
:100570000C00002010B5204CA068204A8006400FD7
:1005800016D0A0688006410F501001290FD0A16835
:100590008906490F022912D0A0688006400F04285E
:1005A00023D0A0688006400F032821D0002010BD72
:1005B000206801218004400F8140104612E0E1686C
:1005C0008B07E1689B0F4906490F491C032B00D09C
:1005D0001046FFF78BFDE1684904490E4843E16886
:1005E000490F491CFFF782FD10BD0120C00310BD5B
:1005F0007D20000210BD0000001002400024F40025
:10060000F8B504007ED020783827C007EF4D0028C9
:1006100046D0A868E96838408907890F102802D0B9
:1006200008280BD001E0032908D0012062680004EB
:1006300082420AD129680143296015E028688003B5
:100640002ED560680028DDD02AE0052301211B0497
:1006500089049A422A6802D10A432A60EAE782435F
:100660002A60286888432860606800280CD0FFF75B
:100670004BFE064604E0FFF747FE801B642873D854
:1006800028688003F7D50BE0FFF73EFE064604E03E
:10069000FFF73AFE801B6428F1D828688003F7D45E
:1006A0002078800769D5A868E96838408A0707215B
:1006B000920FC902102802D0002813D001E0022AAC
:1006C00010D0E068002846D0286888432169084394
:1006D00028602868FF21013108432860FFF714FED5
:1006E00006462CE02A68520502D5E268002A89D025
:1006F0006A687F231B029A4363691B021A436A607C
:10070000002800E08DE00ED1286888432169084365
:100710002860286801218004400F8140AC48FFF721
:10072000E5FCAC490860AC480068FFF70FFE002804
:1007300077D122E0FFF7E8FD801B02289FD82868C8
:100740004005F7D568687F2109028843616909027D
:100750000843686011E02968FF2001308143296067
:10076000FFF7D2FD064605E098E0FFF7CDFD801BC0
:10077000022884D828684005F7D42078974E0007CF
:100780002ED5A8688006400F03280AD0A06900284B
:10079000306A16D0012108433062FFF7B5FD0746E5
:1007A0000BE0306A80071BD5A06900289FD017E0B6
:1007B000FFF7AAFDC01B022870D8306A8007F7D562
:1007C0000EE0400840003062FFF79EFD074604E05F
:1007D000FFF79AFDC01B022860D8306A8007F7D463
:1007E000207840076CD5A86800278006400F0428B1
:1007F00018D0E86BC00008D4E96B01200007014362
:10080000E963E96B01400127009175480168C9055A
:1008100019D40168821511430160FFF775FD00903E
:100820000DE083E0F06980074AD5A06800287DD0FC
:1008300046E0FFF769FD0099401A02282ED8684863
:100840000068C005F5D5A168012910D0042005294C
:10085000F16911D049084900F161F1698143F16101
:10086000A068002816D0FFF74FFD00900EE0F06959
:1008700001210843F061F3E70143F161F7E7FFF776
:1008800043FD0099411A574881426FD8F0698007AB
:10089000F5D50EE0FFF738FD009007E066E0FFF7C2
:1008A00033FD0099411A4F4881425FD8F0698007B3
:1008B000F5D4002F04D0E86B012109078843E863D1
:1008C000E06900287FD0A9688906490F022953D022
:1008D00001263606022828680DD0B0432860E86853
:1008E00080088000E860E8683F490840E860FFF75A
:1008F0000BFD04463CE0B0432860FFF705FD0746CA
:1009000004E0FFF701FDC01B02282FD828688001F2
:10091000F7D4616A206AA26A0843E16A12021143AD
:100920000843216B0843616B084300E049E0E96834
:100930002E4A11400843E860286830432860E86880
:10094000012109070843E860FFF7DEFC044604E0E4
:10095000FFF7DAFC001B022808D828688001F7D5C9
:1009600031E0FFF7D1FC001B022801D90320F8BDBC
:1009700028688001F5D426E00128F8D0E868226ACA
:100980008107890F91421CD17021626A0140914216
:1009900017D17F21A26A090201401202914210D1AF
:1009A0001F214904E26A014091420AD10721490608
:1009B000226B0140914204D1400F616B4007884295
:1009C00001D00120F8BD0020F8BD00000010024059
:1009D0000024F400140000200C000020401002400D
:1009E0000070004088130000FFFFFEEE8C80C111F4
:1009F000F8B504000CD0606A002500280AD02561F3
:100A0000656126464036A562707F002808D00BE05D
:100A10000120F8BD6168C81FFD38F2D0E561F0E73C
:100A20003577204600F05CF8022272772068016872
:100A30004023994301600723E1681B02994201D9D1
:100A4000002001E0012000030F273F02B94202D03D
:100A5000994200D0A562FF23616805331940212720
:100A6000A368BF023B40194323691340227D194309
:100A7000D207D20F11430123A2695B021A4011432E
:100A8000E26938231A401143226A80231A40114335
:100A9000A26A9B011A40114322681160A1690422D5
:100AA000090C1140626A10231A401143626B08233B
:100AB0001A4011430F23E2681B021A40114301221E
:100AC000120310400143206841602068C169521040
:100AD0009143C1612566012070770020F8BD0000B8
:100AE00010B586B0044614216846FFF71CFB114977
:100AF000206888421BD11048026881140A430260B2
:100B00000068084005900C484038426B02210A43B7
:100B10004263406B0191084005903820009000200E
:100B200002900390049069460448FFF72BFB06B03F
:100B300010BD000000300140401002400004005091
:100B4000FFB5044683B001200190002025464035C2
:100B50000090287F0C9F1E4601280FD00120287787
:100B6000FFF7D2FB0290687F616801280DD0CA1F91
:100B7000FD3A08D1A168002905D102E0022007B0A2
:100B8000F0BD042801D00220D1E00498002820D034
:100B9000059800281DD0002E1BD0687F042801D0A6
:100BA000052068770020206605992164EE80AE80DC
:100BB0000499A163E687A687E064206507210120E8
:100BC000E268090200038A422268536803D983431A
:100BD00002E00120ABE00343536020680268520644
:100BE00003D4026840231A430260E06888426068C8
:100BF00044D9002801D0012E39D1A06B216800888A
:100C0000C860A06B801CA063E08F401EE0872EE0D0
:100C100020688168890710D5E18F00290DD00199DE
:100C200001290AD1A16B0988C160A06B801CA06357
:100C3000E08F401EE0870020019020688168C9078E
:100C40000DD0E98800290AD0C068216C0880206C8A
:100C5000801C2064E888401EE88001200190FFF796
:100C600053FB0299401AB84201D3781C5ED1E08F41
:100C70000028CDD1E8880028CAD146E0002801D05C
:100C8000012E3CD1A06B216800780873A06B401C3A
:100C9000A063E08F401EE08731E02068816889070B
:100CA00010D5E18F00290DD0019901290AD1A16B3E
:100CB00009780173A06B401CA063E08F401EE087A1
:100CC0000020019020688168C9070DD0E9880029BB
:100CD0000AD0007B216C0870206C401C2064E888DE
:100CE000401EE88001200190FFF70EFB0299401A98
:100CF000B84202D3781C02D018E0002F16D0E08F43
:100D00000028CAD1E8880028C7D139462046029A6F
:100D100000F098F8002803D00120009020202066E1
:100D20000120687700202877009828E703200090AA
:100D3000F6E7000003490A6803235B029A43024373
:100D40000A60704700000140094910B5401E884202
:100D500001D9012010BD074C60610321081F00F07C
:100D600099F90020A06107202061002010BD00003B
:100D7000FFFFFF0000E000E0FEE7000070B586B076
:100D800014216846FFF7CFF91848426B04210A4343
:100D90004263426B0A400592416B0125294341633E
:100DA000416B29400591426B02210A434263406B2B
:100DB0000526084036070590002220213046FFF71F
:100DC0009CFA680300240090019469460294084844
:100DD000FFF7D8F92020009002946946019503940A
:100DE0003046FFF7CFF906B070BD0000001002409A
:100DF0000008005010B511480F490160FF2105316E
:100E0000416000210722816012020161C2604161DC
:100E1000C161012201625202416282618162072244
:100E2000C262016308214163FFF7E2FD002801D09F
:100E300072B6FEE710BD000000300140180000202F
:100E4000FEE77047F8B50F460B46154600920321A2
:100E500004460022C90200F01BF82026002812D107
:100E60003B46002280212046009500F073F80028C0
:100E700009D103213B46002249022046009500F09B
:100E800007F8002803D0206E304320660320F8BD09
:100E9000FFB583B017460E4604460C9DFFF734FAA3
:100EA000411B0698451AFFF72FFA01902848232185
:100EB00000684843000D684342E0032149028E4226
:100EC00002D1002F00D1007B0698401C39D0FFF7DB
:100ED0001BFA0199401AA84205D2002D03D00098B0
:100EE00000282BD02BE020684168E022914341602C
:100EF0006068C11FFD390CD10121A068C903884277
:100F000002D04911884204D12068016840229143EF
:100F100001600120A16A4003814207D121680A686B
:100F200082430A6021680A6802430A600120403453
:100F3000607700202077032007B0F0BD0025401E19
:100F40000090206881683140B942B6D10020F3E7B3
:100F500014000020FFB581B01E4604460A9DFFF72D
:100F6000D3F9401B351AFFF7CFF90746264800682A
:100F70004001000D684339E0701C38D0FFF7C4F918
:100F8000C01BA84205D2002D03D0009800282BD00A
:100F90002BE020684168E022914341606068C11FF6
:100FA000FD390CD10121A068C903884202D0491142
:100FB000884204D1206801684022914301600120E9
:100FC000A16A4003814207D121680A6882430A600E
:100FD00021680A6802430A600120403460770020DB
:100FE0002077032005B0F0BD0025401E009020684A
:100FF00081680298884305D0002103988142BBD1C3
:101000000020EFE70121F8E714000020704710B539
:10101000FFF780F910BD30B593B038216846FFF76F
:1010200082F8002501200E950F951095400211952C
:10103000FFF7CEF90224E0010390009440200590D0
:1010400008200A9080030B90079400020C900894EB
:10105000000104950D9009956846FFF7D1FA002824
:1010600001D072B6FEE707200EA931C102210EA8F9
:101070001195FFF7D3F9002801D072B6FEE713B03F
:1010800030BD000001200249C006886070470000A2
:1010900000ED00E08307FF22DB0E9A408907090E6E
:1010A0009940002808DB830809489B001B18186832
:1010B00090430843186070470007000F0838830802
:1010C00004489B001B18D86990430843D8617047B7
:1010D00000E400E000ED00E002E008C8121F08C1D3
:1010E000002AFAD170477047002001E001C1121FA9
:1010F000002AFBD17047000008B5FFF713F9FFF78E
:101100008AFFFFF73BFEFFF775FE05242407012544
:101110006D031C4E06E020212046FFF7E6F8C820AC
:10112000FFF71EF829463046FFF7DAF80128F2D01B
:101130001548164A00900323D11E1548FFF700FDFD
:10114000002804D001281BD0032818D118E00F4B29
:10115000DB1E1A46022118781578A84203D0002910
:1011600008D072B6FEE70846491E521C5B1C89B2C5
:101170000028F0D1012220212046FFF7BEF8FEE72B
:1011800072B6FEE70008005088130000030000203C
:101190001800002000000000000000000000000017
:1011A000000000000000000000000000000000003F
:1011B0000000000001000000020000000300000029
:1011C0000400000006000000070000000800000006
:1011D00009000000F41100080000002018000000C1
:1011E000D81000080C120008180000206804000045
:1011F000E8100008010203000000000001000000E8
:0C12000004000000000000000024F400C6
:04000005080000BD32
:00000001FF
