:020000040800F2
:10000000A0040020D1000008390F0008590E000894
:1000100000000000000000000000000000000000E0
:100020000000000000000000000000003D0F00087C
:1000300000000000000000003B0F00083F0F000818
:10004000E3000008E3000008E3000008E300000804
:10005000E3000008E3000008E3000008E3000008F4
:10006000E3000008E3000008E3000008E3000008E4
:10007000E3000008E3000008E3000008E3000008D4
:10008000E3000008E3000008E3000008E3000008C4
:10009000E3000008E3000008E3000008E3000008B4
:1000A000E3000008E3000008E3000008E3000008A4
:1000B000E3000008E3000008E30000080348854669
:1000C00000F08EF8004800479B140008A0040020B0
:1000D0000448804704480047FEE7FEE7FEE7FEE7E6
:1000E000FEE7FEE7C10F0008BD00000830B50B4673
:1000F000014600202022012409E00D46D5409D4202
:1001000005D31D469540491B254695404019154687
:10011000521E002DF1DC30BDF0B51FB406460020A4
:1001200082B005464024019100901BE001992246CF
:100130000F46304600F042F8049A059B801A994118
:1001400010D310461946224600F028F8361A8F417F
:100150000197224601200021009F00F01FF8381867
:100160004D4100902046641E0028DFDC019B009872
:100170002946324607B0F0BDD2B201E00270401C01
:10018000491EFBD270470022F6E710B513460A4617
:1001900004461946FFF7F0FF204610BD10B5202A8F
:1001A00004DB0146203A9140002010BD91402023FD
:1001B0009C1A0346E3401943904010BD10B5202A15
:1001C00004DB0846203AD040002110BD0B46D34046
:1001D000D0402024A21A91400843194610BD0000C7
:1001E000064C0125064E05E0E36807CC2B430C3C8A
:1001F00098471034B442F7D3FFF764FF3C1500086A
:100200005C15000870B5044600F0C2F80546601C95
:1002100002D004480078241800F0BAF8401BA0422D
:10022000FAD370BD00000020FCB5002301259AE040
:1002300022462C469C4022406FD04E68012E05D0AD
:10024000022E03D0112E01D0122E16D1866803275C
:10025000B4465E00B646B7406646BE43B446CF6875
:100260007646B7406646374387604668A6430C79B2
:10027000E406E40F9C4034434460C6685F000324F6
:10028000BC40A446A6438C68BC403443C4604C6860
:10029000022C01D0122C14D1DC08A40024180194E3
:1002A000266A5C07B646E60E0F24B44000967646F2
:1002B000A643B6460C69009EB44076462643019C90
:1002C000266204686646B4430E79B607B60FBE4090
:1002D000264306604C68E40044D59E08254CB600D1
:1002E0003419A446246E9E07F60E0F27B740BC4370
:1002F00005273F07B84201D1002710E01E4FB84242
:1003000001D101270BE01D4FB84201D1022706E0C1
:100310001B4FB84202D1032701E023E00527B74075
:10032000274364462766134E803634684F689443EB
:10033000FF0300D51443346074684F689443BF03CF
:1003400000D5144374600B4C26684F689643FF0237
:1003500000D51643266066684F689643BF0200D5F5
:10036000164366605B1C0A681446DA4000D05FE7FB
:10037000FCBD0000001802400004005000080050BE
:10038000000C0050002A01D08161704781627047E3
:100390000148806870470000000000200248816822
:1003A00002788918816070470000002010B5084865
:1003B00000240168821511430160204600F00AF80C
:1003C000002801D0012401E000F028F8204610BDEB
:1003D0000020024070B50F4E0024317805460029F8
:1003E00015D07D20C000FFF781FE01460A48006855
:1003F000FFF77CFE00F04EFC002808D1042D06D249
:1004000000222946401E00F023F8756000E0012418
:10041000204670BD000000200C00002008B50B48ED
:1004200001680122114301600068104000900748F4
:100430004038C26B01040A43C263C06B084000909D
:100440000320400200F01CFC08BD000040100240E8
:1004500010B500F0F1FF10BD10B50F4C216803225C
:100460005202914301432160C11FFF39FA390ED175
:100470000A480621006848430949FFF737FE401C37
:1004800002E0002805D0401E61694905F9D400202A
:1004900010BD032010BD0000007000400C000020C3
:1004A00040420F00FEB5044600680027704D714EB3
:1004B000800355D500200090F06BC00007D4F16B8D
:1004C000A8050143F163F16B0140012000906A48E7
:1004D0000168821511430160FFF75AFF019005E0A2
:1004E000FFF756FF0199401A022825D86248006894
:1004F000C005F5D5E8690321090208400FD0216B3A
:1005000081420CD0E86903210902EA69884301218C
:1005100009040A43EA61EA698A43EA61E861C007BB
:100520000FD0FFF735FF019008E0FFF731FF019989
:10053000411A5248814201D9032709E0E86980073E
:10054000F3D5E869032109028843216B0843E86178
:100550000098002804D0F16B012000078143F1636B
:100560002078C00705D0686961688008800008436A
:1005700068612078800705D568690C218843A168E7
:10058000084368612078C00606D56869032189029E
:100590008843E168084368612088800506D568695A
:1005A000032189048843A1690843686120884005C4
:1005B00006D56869032109058843E1690843686134
:1005C0002078800606D568690321090388432169DC
:1005D00008436861208840040ED56869216A80005C
:1005E0008008084368610121206A8907884203D195
:1005F000F06889130843F0602068000305D5686936
:1006000040218843616A08436861206881021C4870
:100610000BD569698210A36A914319436961A16A84
:10062000914202D1F1680143F160216849020AD583
:100630006969E26A814311436961E16A814202D1D9
:10064000F1680143F160208800050FD56869032136
:1006500089038843616908436861012160698903EE
:10066000884203D1F06889000843F0603846FEBD37
:10067000401002400010024000700040881300004B
:1006800000000001F8B50F46060043D04D4D286824
:100690004007400FB84213D22868C008C000384352
:1006A0002860FFF775FE044605E0FFF771FE011BA9
:1006B0004548814261D828684007400FB842F4D1CC
:1006C0003068424C81070DD5400704D5A06807214A
:1006D00009030843A060A0680F2109028843B1689C
:1006E0000843A0603078C00732D0706801280AD073
:1006F00002280BD000280FD03449403103280ED0F7
:10070000C969890704E02168890301E0216889013A
:10071000002906DB0120F8BD21684905F8E7096AD0
:10072000EFE7A168C908C9000143A160FFF730FEE7
:10073000009006E0FFF72CFE0099411A2248814202
:100740001BD8A068382108407168C9008842F1D1DF
:1007500028684007400FB84217D91A480168C908ED
:10076000C90039430160FFF713FE054607E0FFF7B4
:100770000FFE411B1448814201D90320F8BD1148E6
:1007800000684007400FB842F1D13078400706D5E5
:10079000A068072109038843F1680843A06000F0BE
:1007A00031F8A1683C2289091140094A515CC90607
:1007B000C90EC8400749086007480068FFF70AFEED
:1007C000F8BD000000200240881300000010024025
:1007D000DC1400080C000020040000200648074933
:1007E00000688968064A4904490F8900515CC906B6
:1007F000C90EC840704700000C00002000100240E5
:100800001C15000810B5204CA068204A8006400F37
:1008100016D0A0688006410F501001290FD0A168A2
:100820008906490F022912D0A0688006400F0428CB
:1008300023D0A0688006400F032821D0002010BDDF
:10084000206801218004400F8140104612E0E168D9
:100850008B07E1689B0F4906490F491C032B00D009
:100860001046FFF743FCE1684904490E4843E1683C
:10087000490F491CFFF73AFC10BD0120C00310BD11
:100880007D20000210BD0000001002400024F40092
:10089000F8B504007ED020783827C007EF4D002837
:1008A00046D0A868E96838408907890F102802D027
:1008B00008280BD001E0032908D001206268000459
:1008C00082420AD129680143296015E02868800323
:1008D0002ED560680028DDD02AE0052301211B0405
:1008E00089049A422A6802D10A432A60EAE78243CD
:1008F0002A60286888432860606800280CD0FFF7C9
:1009000047FD064604E0FFF743FD801B642873D8CB
:1009100028688003F7D50BE0FFF73AFD064604E0B0
:10092000FFF736FD801B6428F1D828688003F7D4D0
:100930002078800769D5A868E96838408A070721C8
:10094000920FC902102802D0002813D001E0022A19
:1009500010D0E068002846D0286888432169084301
:1009600028602868FF21013108432860FFF710FD47
:1009700006462CE02A68520502D5E268002A89D092
:100980006A687F231B029A4363691B021A436A60E9
:10099000002800E08DE00ED12868884321690843D3
:1009A0002860286801218004400F8140AC48FFF78F
:1009B0009DFBAC490860AC480068FFF70BFD0028C0
:1009C00077D122E0FFF7E4FC801B02289FD828683B
:1009D0004005F7D568687F210902884361690902EB
:1009E0000843686011E02968FF20013081432960D5
:1009F000FFF7CEFC064605E098E0FFF7C9FC801B38
:100A0000022884D828684005F7D42078974E00073C
:100A10002ED5A8688006400F03280AD0A0690028B8
:100A2000306A16D0012108433062FFF7B1FC074657
:100A30000BE0306A80071BD5A06900289FD017E023
:100A4000FFF7A6FCC01B022870D8306A8007F7D5D4
:100A50000EE0400840003062FFF79AFC074604E0D1
:100A6000FFF796FCC01B022860D8306A8007F7D4D5
:100A7000207840076CD5A86800278006400F04281E
:100A800018D0E86BC00008D4E96B012000070143CF
:100A9000E963E96B01400127009175480168C905C8
:100AA00019D40168821511430160FFF771FC0090B1
:100AB0000DE083E0F06980074AD5A06800287DD06A
:100AC00046E0FFF765FC0099401A02282ED86848D6
:100AD0000068C005F5D5A168012910D004200529BA
:100AE000F16911D049084900F161F1698143F1616F
:100AF000A068002816D0FFF74BFC00900EE0F069CC
:100B000001210843F061F3E70143F161F7E7FFF7E3
:100B10003FFC0099411A574881426FD8F06980071D
:100B2000F5D50EE0FFF734FC009007E066E0FFF734
:100B30002FFC0099411A4F4881425FD8F069800725
:100B4000F5D4002F04D0E86B012109078843E8633E
:100B5000E06900287FD0A9688906490F022953D08F
:100B600001263606022828680DD0B0432860E868C0
:100B700080088000E860E8683F490840E860FFF7C7
:100B800007FC04463CE0B0432860FFF701FC074641
:100B900004E0FFF7FDFBC01B02282FD82868800166
:100BA000F7D4616A206AA26A0843E16A120211431B
:100BB0000843216B0843616B084300E049E0E968A2
:100BC0002E4A11400843E860286830432860E868EE
:100BD000012109070843E860FFF7DAFB044604E057
:100BE000FFF7D6FB001B022808D828688001F7D53C
:100BF00031E0FFF7CDFB001B022801D90320F8BD2F
:100C000028688001F5D426E00128F8D0E868226A37
:100C10008107890F91421CD17021626A0140914283
:100C200017D17F21A26A090201401202914210D11C
:100C30001F214904E26A014091420AD10721490675
:100C4000226B0140914204D1400F616B4007884202
:100C500001D00120F8BD0020F8BD000000100240C6
:100C60000024F4000C00002004000020401002408A
:100C70000070004088130000FFFFFEEE8C80C11161
:100C800003490A6803235B029A4302430A607047E0
:100C900000000140094910B5401E884201D90120D9
:100CA00010BD074C60610321081F00F0C5FB002048
:100CB000A06107202061002010BD0000FFFFFF00A1
:100CC00000E000E010B5014680310A78012A15D015
:100CD00001220A7024224A600268136814686408BA
:100CE00064001460012252079343002242660068A8
:100CF0000360202048600A70104610BD022010BD1D
:100D000070B5044605468034207801281AD00120A9
:100D1000207024206060286806680268520852002B
:100D200002602868826807235B069A430A43826050
:100D3000284600F04DF928680660202060600020F9
:100D4000207070BD022070BD70B504460546803429
:100D50002078012819D001202070242060602868A4
:100D60000668026852085200026028688268D20051
:100D7000D2080A438260284600F02AF928680660F3
:100D8000202060600020207070BD022070BD70B512
:100D9000040005D0254680356868002802D006E0AA
:100DA000012070BD00202870204600F027F8242084
:100DB000686020680168490849000160204600F029
:100DC000CFF90128EDD0A06A002802D0204600F01B
:100DD0002FF9206841680922D202914341602068BE
:100DE00081682A22914381602068016801221143B1
:100DF0000160204600F082F970BD000010B586B099
:100E0000044614216846FFF7BEF91149206888425C
:100E10001CD11048C26B012149040A43C263C26B52
:100E20000A400592426B01210A434263406B0291E2
:100E3000084005900C2000900220019000200390B3
:100E40000491052069460007FFF7EEF906B010BDD2
:100E50000044004000100240FEE70000F0B587B0FB
:100E600014216846FFF78FF91748426B04210A43A3
:100E70004263426B0A400592416B20242143416347
:100E8000416B21400591416B012529434163406B32
:100E90000526284036070590002221463046FFF7F8
:100EA00071FA0195002502270094694630460397A0
:100EB0000295FFF7B9F96A46B0C269460348FFF7E1
:100EC000B3F907B0F0BD0000001002400008005068
:100ED00010B5184816490160E1214902416000211E
:100EE0008160C16001618161C16101620C22416266
:100EF00042618162FFF74BFF002801D072B6FEE726
:100F000000210C48FFF720FF002801D072B6FEE751
:100F100000210848FFF7F4FE002801D072B6FEE772
:100F20000448FFF7CFFE002801D072B6FEE710BDDF
:100F30000044004010000020FEE77047704710B5E5
:100F4000FFF72CFA10BD30B59FB038216846FFF787
:100F50001AF900241B941C941D9434210EA81E948D
:100F6000FFF711F901204002FFF776FA0225E801A8
:100F70000390009540200590049407946846FFF77D
:100F800087FC002801D072B6FEE707201B900120E5
:100F9000C0021D901C9400211E941BA8FFF772FB39
:100FA000002801D072B6FEE70EA80E951094FFF748
:100FB00079FA002801D072B6FEE71FB030BD0000FC
:100FC00001200249C00688607047000000ED00E083
:100FD000F0B513A106C985B00192009112A206CA0C
:100FE000039202910446416E4034002915D00068F6
:100FF0008168806809014D0F400F02AE315C6F4679
:10100000385CC000FFF772F86085785D715DC000E4
:10101000FFF76CF8208505B0F0BD01206085F9E789
:101020000101010307010000080402040801010195
:1010300010B5018DC90707D001684A6801235B0418
:101040009A43C36A1A434A60018D890707D501682C
:101050004A6801231B049A43036B1A434A60018DBB
:10106000490707D501684A6801239B049A43436BEB
:101070001A434A60018D090707D501684A680123B0
:10108000DB039A43836B1A434A60018DC90607D577
:101090000268916801231B039943C36B1943916054
:1010A000018D890607D501688A6801235B039A438D
:1010B000036C1A438A60018D490612D503685A6889
:1010C00001210905446C8A4322435A60426C8A42DA
:1010D00007D10268516803235B059943836C194368
:1010E0005160018D090607D501684A680123DB04B8
:1010F000C06C9A4302434A6010BD0000FEB505462D
:10110000002680350446EE60FFF742F90190206822
:101110000068124F000709D50121009700224905F8
:101120002046019B00F03AF900280DD120680068A4
:1011300040070BD501210097002289052046019B1D
:1011400000F02CF9002801D00320FEBD20206860AB
:10115000A860E6662E700020FEBD0000FFFFFF01C4
:10116000F8B504462269A168E56911436269002661
:101170002A431143626E00680A437C4B01687C4D30
:101180002940114301602068416803221203914302
:10119000E268114341602168A069994201D0226A46
:1011A00010438A68734D2A4002438A602068C16AEE
:1011B000626A090909011143C1626F4922686F48D7
:1011C0008A420AD140698007800F1AD001283DD099
:1011D000022839D0032827D124E069498A420AD15C
:1011E00040690C2108400CD004282FD008282BD0AF
:1011F0000C2819D116E063498A4202D062498A421A
:1012000001D1002111E09A420ED1416903208002F0
:1012100001400AD001208002091A17D0091A13D000
:10122000814201D1082100E010210120574D584F83
:10123000C0039A423BD100290AD0022911D00429C7
:1012400009D008297ED10BE00221EEE70421ECE76A
:10125000FFF7C4FA01E0FFF7D5FA050001D17AE003
:101260000546606A4000395A28460091FEF73EFF65
:10127000676879007918814269D83903814266D359
:10128000002328461946009AFEF746FF020E09027F
:101290000302780811431818002251413A460023EE
:1012A000FEF73AFF03210902411A3A4A4DE0E2698A
:1012B000824228D1002906D0022907D0042907D06C
:1012C000082944D108E0FFF789FA03E0284603E043
:1012D000FFF798FA00283ED0616A4900795AFEF774
:1012E00005FF616840004A088018FEF7FFFE80B2E3
:1012F00002462949103A8A4229D8491C0140000770
:10130000400F084325E0002906D0022907D0042910
:1013100007D008291BD108E0FFF760FA03E0284650
:1013200003E0FFF76FFA002815D0616A4900795A87
:10133000FEF7DCFE61684A088018FEF7D7FE80B22F
:10134000014600E003E0144A1039914201D9012618
:1013500001E02168C86020460121403041850185B7
:101360000020206760673046F8BD00000080004024
:10137000F369FFCFFFF4FF11003801404010024035
:101380000044004000480040004C00400024F400AD
:10139000C4140008FFFC0F00EFFF0000FFB581B090
:1013A00005460F46044680350A9E38E0701C36D04C
:1013B000FEF7EEFF0499401AB04221D8002E1FD04C
:1013C0002068016849072AD5C069C043000526D4B2
:1013D00001202168C002086220680168FF22A13252
:1013E000914301602068816849084900816020209C
:1013F0006860A860E86000202870032005B0F0BD98
:1014000020680168FF22A132914301602068816851
:1014100049084900816020206860A860EBE72068E7
:10142000C1693846884305D0002103988142BDD068
:101430000020E3E70121F8E78307FF22DB0E9A4053
:101440008907090E9940002808DB830809489B009A
:101450001B18186890430843186070470007000F76
:101460000838830804489B001B18D8699043084338
:10147000D861704700E400E000ED00E002E008C839
:10148000121F08C1002AFAD170477047002001E0FE
:1014900001C1121F002AFBD17047FEF787FFFFF73B
:1014A00052FDFFF7DBFCFFF713FD052424077D2524
:1014B000ED00012220212046FEF764FF2846FEF7BA
:1014C000A1FEF6E7010002000400060008000A0081
:1014D0000C0010002000400080000001000000000F
:1014E00000000000000000000000000000000000FC
:1014F00000000000000000000000000001000000EB
:1015000002000000030000000400000006000000CC
:1015100007000000080000000900000000000000B3
:1015200000000000000000000000000001000000BA
:101530000200000003000000040000005C15000829
:1015400000000020100000007C1400086C1500084A
:1015500010000020900400008C140008010000001E
:0C15600004000000000000000024F40063
:04000005080000BD32
:00000001FF
